{
  "address": "0xba97239c003E1d46BB083980C6bFBb3Ffb6Dd94D",
  "abi": [
    {
      "inputs": [
        {
          "internalType": "uint256[3]",
          "name": "_phaseRates",
          "type": "uint256[3]"
        },
        {
          "internalType": "address",
          "name": "_usdt",
          "type": "address"
        },
        {
          "internalType": "address payable",
          "name": "_fundsCollector",
          "type": "address"
        },
        {
          "internalType": "address",
          "name": "_vesting",
          "type": "address"
        },
        {
          "internalType": "address",
          "name": "_ethPriceFeed",
          "type": "address"
        },
        {
          "internalType": "address",
          "name": "_usdtPriceFeed",
          "type": "address"
        },
        {
          "internalType": "uint256",
          "name": "_maxBuyableAmount",
          "type": "uint256"
        },
        {
          "internalType": "uint256",
          "name": "_minBuyableAmount",
          "type": "uint256"
        }
      ],
      "stateMutability": "nonpayable",
      "type": "constructor"
    },
    {
      "anonymous": false,
      "inputs": [
        {
          "indexed": false,
          "internalType": "address",
          "name": "account",
          "type": "address"
        }
      ],
      "name": "Paused",
      "type": "event"
    },
    {
      "anonymous": false,
      "inputs": [
        {
          "indexed": true,
          "internalType": "bytes32",
          "name": "role",
          "type": "bytes32"
        },
        {
          "indexed": true,
          "internalType": "bytes32",
          "name": "previousAdminRole",
          "type": "bytes32"
        },
        {
          "indexed": true,
          "internalType": "bytes32",
          "name": "newAdminRole",
          "type": "bytes32"
        }
      ],
      "name": "RoleAdminChanged",
      "type": "event"
    },
    {
      "anonymous": false,
      "inputs": [
        {
          "indexed": true,
          "internalType": "bytes32",
          "name": "role",
          "type": "bytes32"
        },
        {
          "indexed": true,
          "internalType": "address",
          "name": "account",
          "type": "address"
        },
        {
          "indexed": true,
          "internalType": "address",
          "name": "sender",
          "type": "address"
        }
      ],
      "name": "RoleGranted",
      "type": "event"
    },
    {
      "anonymous": false,
      "inputs": [
        {
          "indexed": true,
          "internalType": "bytes32",
          "name": "role",
          "type": "bytes32"
        },
        {
          "indexed": true,
          "internalType": "address",
          "name": "account",
          "type": "address"
        },
        {
          "indexed": true,
          "internalType": "address",
          "name": "sender",
          "type": "address"
        }
      ],
      "name": "RoleRevoked",
      "type": "event"
    },
    {
      "anonymous": false,
      "inputs": [
        {
          "indexed": true,
          "internalType": "address",
          "name": "purchaser",
          "type": "address"
        },
        {
          "indexed": false,
          "internalType": "uint256",
          "name": "value",
          "type": "uint256"
        },
        {
          "indexed": false,
          "internalType": "uint256",
          "name": "amount",
          "type": "uint256"
        },
        {
          "indexed": false,
          "internalType": "string",
          "name": "currency",
          "type": "string"
        },
        {
          "indexed": false,
          "internalType": "string",
          "name": "sponsorKey",
          "type": "string"
        }
      ],
      "name": "TokenPurchased",
      "type": "event"
    },
    {
      "anonymous": false,
      "inputs": [
        {
          "indexed": false,
          "internalType": "address",
          "name": "account",
          "type": "address"
        }
      ],
      "name": "Unpaused",
      "type": "event"
    },
    {
      "stateMutability": "payable",
      "type": "fallback"
    },
    {
      "inputs": [],
      "name": "CROWDSALE_ADMIN_ROLE",
      "outputs": [
        {
          "internalType": "bytes32",
          "name": "",
          "type": "bytes32"
        }
      ],
      "stateMutability": "view",
      "type": "function"
    },
    {
      "inputs": [],
      "name": "DEFAULT_ADMIN_ROLE",
      "outputs": [
        {
          "internalType": "bytes32",
          "name": "",
          "type": "bytes32"
        }
      ],
      "stateMutability": "view",
      "type": "function"
    },
    {
      "inputs": [],
      "name": "PAUSER_ROLE",
      "outputs": [
        {
          "internalType": "bytes32",
          "name": "",
          "type": "bytes32"
        }
      ],
      "stateMutability": "view",
      "type": "function"
    },
    {
      "inputs": [
        {
          "internalType": "string",
          "name": "sponsorKey",
          "type": "string"
        }
      ],
      "name": "buyTokens",
      "outputs": [],
      "stateMutability": "payable",
      "type": "function"
    },
    {
      "inputs": [],
      "name": "buyTokens",
      "outputs": [],
      "stateMutability": "payable",
      "type": "function"
    },
    {
      "inputs": [
        {
          "internalType": "uint256",
          "name": "weiAmount",
          "type": "uint256"
        }
      ],
      "name": "buyTokensWithUSDT",
      "outputs": [],
      "stateMutability": "payable",
      "type": "function"
    },
    {
      "inputs": [
        {
          "internalType": "uint256",
          "name": "weiAmount",
          "type": "uint256"
        },
        {
          "internalType": "string",
          "name": "sponsorKey",
          "type": "string"
        }
      ],
      "name": "buyTokensWithUSDT",
      "outputs": [],
      "stateMutability": "payable",
      "type": "function"
    },
    {
      "inputs": [],
      "name": "fundsCollector",
      "outputs": [
        {
          "internalType": "address payable",
          "name": "",
          "type": "address"
        }
      ],
      "stateMutability": "view",
      "type": "function"
    },
    {
      "inputs": [
        {
          "internalType": "address",
          "name": "beneficiary",
          "type": "address"
        }
      ],
      "name": "getBuyableAmount",
      "outputs": [
        {
          "internalType": "uint256",
          "name": "",
          "type": "uint256"
        }
      ],
      "stateMutability": "view",
      "type": "function"
    },
    {
      "inputs": [
        {
          "internalType": "uint256",
          "name": "weiAmount",
          "type": "uint256"
        }
      ],
      "name": "getETHPriceFor",
      "outputs": [
        {
          "internalType": "uint256",
          "name": "",
          "type": "uint256"
        }
      ],
      "stateMutability": "view",
      "type": "function"
    },
    {
      "inputs": [],
      "name": "getMinimumBuyableAmount",
      "outputs": [
        {
          "internalType": "uint256",
          "name": "",
          "type": "uint256"
        }
      ],
      "stateMutability": "view",
      "type": "function"
    },
    {
      "inputs": [
        {
          "internalType": "uint256",
          "name": "weiAmount",
          "type": "uint256"
        }
      ],
      "name": "getORIAmountForETH",
      "outputs": [
        {
          "internalType": "uint256",
          "name": "",
          "type": "uint256"
        }
      ],
      "stateMutability": "view",
      "type": "function"
    },
    {
      "inputs": [
        {
          "internalType": "uint256",
          "name": "weiAmount",
          "type": "uint256"
        }
      ],
      "name": "getORIAmountForUSD",
      "outputs": [
        {
          "internalType": "uint256",
          "name": "",
          "type": "uint256"
        }
      ],
      "stateMutability": "view",
      "type": "function"
    },
    {
      "inputs": [
        {
          "internalType": "uint256",
          "name": "weiAmount",
          "type": "uint256"
        }
      ],
      "name": "getORIAmountForUSDT",
      "outputs": [
        {
          "internalType": "uint256",
          "name": "",
          "type": "uint256"
        }
      ],
      "stateMutability": "view",
      "type": "function"
    },
    {
      "inputs": [
        {
          "internalType": "bytes32",
          "name": "role",
          "type": "bytes32"
        }
      ],
      "name": "getRoleAdmin",
      "outputs": [
        {
          "internalType": "bytes32",
          "name": "",
          "type": "bytes32"
        }
      ],
      "stateMutability": "view",
      "type": "function"
    },
    {
      "inputs": [
        {
          "internalType": "bytes32",
          "name": "role",
          "type": "bytes32"
        },
        {
          "internalType": "uint256",
          "name": "index",
          "type": "uint256"
        }
      ],
      "name": "getRoleMember",
      "outputs": [
        {
          "internalType": "address",
          "name": "",
          "type": "address"
        }
      ],
      "stateMutability": "view",
      "type": "function"
    },
    {
      "inputs": [
        {
          "internalType": "bytes32",
          "name": "role",
          "type": "bytes32"
        }
      ],
      "name": "getRoleMemberCount",
      "outputs": [
        {
          "internalType": "uint256",
          "name": "",
          "type": "uint256"
        }
      ],
      "stateMutability": "view",
      "type": "function"
    },
    {
      "inputs": [
        {
          "internalType": "uint256",
          "name": "weiAmount",
          "type": "uint256"
        }
      ],
      "name": "getUSDPriceFor",
      "outputs": [
        {
          "internalType": "uint256",
          "name": "",
          "type": "uint256"
        }
      ],
      "stateMutability": "view",
      "type": "function"
    },
    {
      "inputs": [
        {
          "internalType": "uint256",
          "name": "weiAmount",
          "type": "uint256"
        }
      ],
      "name": "getUSDTPriceFor",
      "outputs": [
        {
          "internalType": "uint256",
          "name": "",
          "type": "uint256"
        }
      ],
      "stateMutability": "view",
      "type": "function"
    },
    {
      "inputs": [
        {
          "internalType": "bytes32",
          "name": "role",
          "type": "bytes32"
        },
        {
          "internalType": "address",
          "name": "account",
          "type": "address"
        }
      ],
      "name": "grantRole",
      "outputs": [],
      "stateMutability": "nonpayable",
      "type": "function"
    },
    {
      "inputs": [
        {
          "internalType": "bytes32",
          "name": "role",
          "type": "bytes32"
        },
        {
          "internalType": "address",
          "name": "account",
          "type": "address"
        }
      ],
      "name": "hasRole",
      "outputs": [
        {
          "internalType": "bool",
          "name": "",
          "type": "bool"
        }
      ],
      "stateMutability": "view",
      "type": "function"
    },
    {
      "inputs": [],
      "name": "maxBuyableAmount",
      "outputs": [
        {
          "internalType": "uint256",
          "name": "",
          "type": "uint256"
        }
      ],
      "stateMutability": "view",
      "type": "function"
    },
    {
      "inputs": [],
      "name": "minBuyableAmount",
      "outputs": [
        {
          "internalType": "uint256",
          "name": "",
          "type": "uint256"
        }
      ],
      "stateMutability": "view",
      "type": "function"
    },
    {
      "inputs": [],
      "name": "pause",
      "outputs": [],
      "stateMutability": "nonpayable",
      "type": "function"
    },
    {
      "inputs": [],
      "name": "paused",
      "outputs": [
        {
          "internalType": "bool",
          "name": "",
          "type": "bool"
        }
      ],
      "stateMutability": "view",
      "type": "function"
    },
    {
      "inputs": [],
      "name": "phaseIndex",
      "outputs": [
        {
          "internalType": "uint256",
          "name": "",
          "type": "uint256"
        }
      ],
      "stateMutability": "view",
      "type": "function"
    },
    {
      "inputs": [
        {
          "internalType": "uint256",
          "name": "",
          "type": "uint256"
        }
      ],
      "name": "phases",
      "outputs": [
        {
          "internalType": "uint256",
          "name": "rate",
          "type": "uint256"
        }
      ],
      "stateMutability": "view",
      "type": "function"
    },
    {
      "inputs": [],
      "name": "rate",
      "outputs": [
        {
          "internalType": "uint256",
          "name": "",
          "type": "uint256"
        }
      ],
      "stateMutability": "view",
      "type": "function"
    },
    {
      "inputs": [
        {
          "internalType": "bytes32",
          "name": "role",
          "type": "bytes32"
        },
        {
          "internalType": "address",
          "name": "account",
          "type": "address"
        }
      ],
      "name": "renounceRole",
      "outputs": [],
      "stateMutability": "nonpayable",
      "type": "function"
    },
    {
      "inputs": [
        {
          "internalType": "bytes32",
          "name": "role",
          "type": "bytes32"
        },
        {
          "internalType": "address",
          "name": "account",
          "type": "address"
        }
      ],
      "name": "revokeRole",
      "outputs": [],
      "stateMutability": "nonpayable",
      "type": "function"
    },
    {
      "inputs": [
        {
          "internalType": "bytes4",
          "name": "interfaceId",
          "type": "bytes4"
        }
      ],
      "name": "supportsInterface",
      "outputs": [
        {
          "internalType": "bool",
          "name": "",
          "type": "bool"
        }
      ],
      "stateMutability": "view",
      "type": "function"
    },
    {
      "inputs": [],
      "name": "unpause",
      "outputs": [],
      "stateMutability": "nonpayable",
      "type": "function"
    },
    {
      "inputs": [],
      "name": "updateRate",
      "outputs": [],
      "stateMutability": "nonpayable",
      "type": "function"
    },
    {
      "inputs": [],
      "name": "usdt",
      "outputs": [
        {
          "internalType": "contract ERC20",
          "name": "",
          "type": "address"
        }
      ],
      "stateMutability": "view",
      "type": "function"
    },
    {
      "inputs": [],
      "name": "vesting",
      "outputs": [
        {
          "internalType": "contract Vesting",
          "name": "",
          "type": "address"
        }
      ],
      "stateMutability": "view",
      "type": "function"
    },
    {
      "stateMutability": "payable",
      "type": "receive"
    }
  ],
  "transactionHash": "0x19db2adf8cdad3f41e7e324e1d1bd7d3c421849f9221aa585ac559138a9dbe44",
  "args": [
    [
      "100000000000",
      "62500000000",
      "31250000000"
    ],
    "0xdAC17F958D2ee523a2206206994597C13D831ec7",
    "0xf310366666882274F2bF184F9Ab790906142fF9B",
    "0x6B468BfC7104a2d16EF7C7DEd7e579f7d8bd3b5e",
    "0x5f4eC3Df9cbd43714FE2740f5E3616155c5b8419",
    "0x3E7d1eAB13ad0104d2750B8863b489D65364e32D",
    "500000000000",
    "10000000000"
  ],
  "numDeployments": 1,
  "solcInputHash": "1dd4cf646caeba09b7d208d4269dcb69",
  "bytecode": "0x6101606040523480156200001257600080fd5b50604051620030bc380380620030bc8339810160408190526200003591620004ed565b60016000556003805460ff191690556001600160a01b038616620000b75760405162461bcd60e51b815260206004820152602e60248201527f43726f776473616c653a2066756e647320636f6c6c6563746f7220697320746860448201526d65207a65726f206164647265737360901b60648201526084015b60405180910390fd5b6001600160a01b038716620001215760405162461bcd60e51b815260206004820152602960248201527f43726f776473616c653a207573647420746f6b656e20697320746865207a65726044820152686f206164647265737360b81b6064820152608401620000ae565b6001600160a01b038516620001885760405162461bcd60e51b815260206004820152602660248201527f43726f776473616c653a2076657374696e6720697320746865207a65726f206160448201526564647265737360d01b6064820152608401620000ae565b6001600160a01b038416620001f65760405162461bcd60e51b815260206004820152602d60248201527f43726f776473616c653a2065746820707269636520666565642069732074686560448201526c207a65726f206164647265737360981b6064820152608401620000ae565b6001600160a01b038316620002655760405162461bcd60e51b815260206004820152602e60248201527f43726f776473616c653a2075736474207072696365206665656420697320746860448201526d65207a65726f206164647265737360901b6064820152608401620000ae565b808211620002dc5760405162461bcd60e51b815260206004820152603e60248201527f43726f776473616c653a206d61782062757961626c6520616d6f756e7420697360448201527f206c6f776572207468616e206d696e2062757961626c6520616d6f756e7400006064820152608401620000ae565b620002e96000336200037c565b60005b600381101562000340578881600381106200030b576200030b620005e2565b602002015160048260038110620003265762000326620005e2565b6002020155806200033781620005f8565b915050620002ec565b506000600a556001600160a01b0395861660e05295851660c0529284166101405290831660805290911660a05261010052610120525062000620565b620003938282620003bf60201b6200148e1760201c565b6000828152600260209081526040909120620003ba9183906200154d62000448821b17901c565b505050565b60008281526001602090815260408083206001600160a01b038516845290915290205460ff16620004445760008281526001602081815260408084206001600160a01b0386168086529252808420805460ff19169093179092559051339285917f2f8788117e7eff1d82e926ec794901d17c78024a50270940304540a733656f0d9190a45b5050565b60006200045f836001600160a01b03841662000468565b90505b92915050565b6000818152600183016020526040812054620004b15750815460018181018455600084815260208082209093018490558454848252828601909352604090209190915562000462565b50600062000462565b634e487b7160e01b600052604160045260246000fd5b80516001600160a01b0381168114620004e857600080fd5b919050565b600080600080600080600080610140898b0312156200050b57600080fd5b89601f8a01126200051b57600080fd5b604051606081016001600160401b0381118282101715620005405762000540620004ba565b6040528060608b018c8111156200055657600080fd5b8b5b818110156200057257805183526020928301920162000558565b50829a506200058181620004d0565b99505050506200059460808a01620004d0565b9550620005a460a08a01620004d0565b9450620005b460c08a01620004d0565b9350620005c460e08a01620004d0565b6101008a0151610120909a0151989b979a5095989497939692505050565b634e487b7160e01b600052603260045260246000fd5b6000600182016200061957634e487b7160e01b600052601160045260246000fd5b5060010190565b60805160a05160c05160e051610100516101205161014051612a09620006b36000396000818161044b015261184801526000818161030001526107cf01526000818161064e0152610a8501526000818161040201528181610e1601526113610152600081816103890152818161099601528181610f410152611329015260006116f8015260006119160152612a096000f3fe6080604052600436106102385760003560e01c8063658297f411610138578063c3a30bcb116100b0578063ca15c8731161007f578063d547741f11610064578063d547741f146106b8578063da49eb9e146106d8578063e63ab1e9146106f857610247565b8063ca15c87314610698578063d0febe4c1461024757610247565b8063c3a30bcb1461061c578063c6b541111461063c578063c73eb6d714610670578063c7fee63e1461068357610247565b80639010d07c116101075780639fa93723116100ec5780639fa93723146105c7578063a217fddf146105e7578063b4939ad5146105fc57610247565b80639010d07c1461055457806391d148541461057457610247565b8063658297f4146104ec5780636f85e62c1461050c5780637c6debc21461051f5780638456cb591461053f57610247565b80632f48ab7d116101cb57806344c63eec1161019a5780635c975abb1161017f5780635c975abb146104a15780635ef8086f146104b95780636055e05a146104cc57610247565b806344c63eec146104395780634a9268351461046d57610247565b80632f48ab7d1461037757806336568abe146103d05780633a8c3338146103f05780633f4ba83a1461042457610247565b80632511b182116102075780632511b182146102ee5780632c4e722e146103225780632e37eef6146103375780632f2ff15d1461035757610247565b806301ffc9a71461024f578063078c91ff14610284578063248a9ca3146102a757806324ba05af146102d857610247565b366102475761024561072c565b005b61024561072c565b34801561025b57600080fd5b5061026f61026a3660046122ae565b61076c565b60405190151581526020015b60405180910390f35b34801561029057600080fd5b506102996107c8565b60405190815260200161027b565b3480156102b357600080fd5b506102996102c23660046122f0565b6000908152600160208190526040909120015490565b3480156102e457600080fd5b50610299600a5481565b3480156102fa57600080fd5b506102997f000000000000000000000000000000000000000000000000000000000000000081565b34801561032e57600080fd5b506102996107f8565b34801561034357600080fd5b506102996103523660046122f0565b610808565b34801561036357600080fd5b50610245610372366004612332565b610822565b34801561038357600080fd5b506103ab7f000000000000000000000000000000000000000000000000000000000000000081565b60405173ffffffffffffffffffffffffffffffffffffffff909116815260200161027b565b3480156103dc57600080fd5b506102456103eb366004612332565b61084d565b3480156103fc57600080fd5b506103ab7f000000000000000000000000000000000000000000000000000000000000000081565b34801561043057600080fd5b50610245610905565b34801561044557600080fd5b506103ab7f000000000000000000000000000000000000000000000000000000000000000081565b34801561047957600080fd5b506102997f1ae041e7f694fa9f3da1ca6a86d5f03d7d3c664f8ddea494dd6b1fac8e8727f481565b3480156104ad57600080fd5b5060035460ff1661026f565b6102456104c73660046122f0565b61093a565b3480156104d857600080fd5b506102996104e73660046122f0565b610979565b3480156104f857600080fd5b5061029961050736600461235e565b610a4a565b61024561051a366004612453565b610aba565b34801561052b57600080fd5b5061029961053a3660046122f0565b610e6e565b34801561054b57600080fd5b50610245610e82565b34801561056057600080fd5b506103ab61056f366004612488565b610eb4565b34801561058057600080fd5b5061026f61058f366004612332565b600091825260016020908152604080842073ffffffffffffffffffffffffffffffffffffffff93909316845291905290205460ff1690565b3480156105d357600080fd5b506102996105e23660046122f0565b610ecc565b3480156105f357600080fd5b50610299600081565b34801561060857600080fd5b506102996106173660046122f0565b610ef9565b34801561062857600080fd5b506102996106373660046122f0565b610f30565b34801561064857600080fd5b506102997f000000000000000000000000000000000000000000000000000000000000000081565b61024561067e3660046124aa565b610fe3565b34801561068f57600080fd5b50610245611393565b3480156106a457600080fd5b506102996106b33660046122f0565b61143d565b3480156106c457600080fd5b506102456106d3366004612332565b611454565b3480156106e457600080fd5b506102996106f33660046122f0565b61147a565b34801561070457600080fd5b506102997f65d7a28e3265b37a6474929f336521b332c1681b933f6cb9f3376673440d862a81565b61076a6040518060400160405280600a81526020017f3030303030303030303000000000000000000000000000000000000000000000815250610aba565b565b60007fffffffff0000000000000000000000000000000000000000000000000000000082167f5a05180f0000000000000000000000000000000000000000000000000000000014806107c257506107c28261156f565b92915050565b60006107f37f000000000000000000000000000000000000000000000000000000000000000061147a565b905090565b6000610802611606565b54919050565b6004816003811061081857600080fd5b6002020154905081565b6000828152600160208190526040909120015461083e81611626565b6108488383611630565b505050565b73ffffffffffffffffffffffffffffffffffffffff811633146108f7576040517f08c379a000000000000000000000000000000000000000000000000000000000815260206004820152602f60248201527f416363657373436f6e74726f6c3a2063616e206f6e6c792072656e6f756e636560448201527f20726f6c657320666f722073656c66000000000000000000000000000000000060648201526084015b60405180910390fd5b6109018282611652565b5050565b7f65d7a28e3265b37a6474929f336521b332c1681b933f6cb9f3376673440d862a61092f81611626565b610937611674565b50565b610937816040518060400160405280600a81526020017f3030303030303030303000000000000000000000000000000000000000000000815250610fe3565b6000806109846116f1565b9050600061099184610e6e565b9050817f000000000000000000000000000000000000000000000000000000000000000073ffffffffffffffffffffffffffffffffffffffff1663313ce5676040518163ffffffff1660e01b8152600401602060405180830381865afa1580156109ff573d6000803e3d6000fd5b505050506040513d601f19601f82011682018060405250810190610a2391906124f1565b610a2e90600a612663565b610a389083612672565b610a4291906126af565b949350505050565b600080610a55611606565b73ffffffffffffffffffffffffffffffffffffffff84166000908152600182016020526040902054909150610aa97f000000000000000000000000000000000000000000000000000000000000000061147a565b610ab391906126ea565b9392505050565b610ac261171c565b610aca61178f565b34336000829003610b37576040517f08c379a000000000000000000000000000000000000000000000000000000000815260206004820152601960248201527f43726f776473616c653a20776569416d6f756e7420697320300000000000000060448201526064016108ee565b8251600a14610bee576040517f08c379a000000000000000000000000000000000000000000000000000000000815260206004820152604160248201527f43726f776473616c653a206261642073706f6e736f724b657920666f726d617460448201527f2c2069742073686f756c6420636f6e7461696e2031302063686172616374657260648201527f7300000000000000000000000000000000000000000000000000000000000000608482015260a4016108ee565b6000610bf983610ef9565b9050610c036107c8565b811015610cb8576040517f08c379a000000000000000000000000000000000000000000000000000000000815260206004820152604160248201527f43726f776473616c653a2073756263656564206d696e696d756d20616d6f756e60448201527f74206f6620746f6b656e2062757961626c6520666f722074686973207068617360648201527f6500000000000000000000000000000000000000000000000000000000000000608482015260a4016108ee565b6000610cc383610a4a565b905081811015610d5757604080517f08c379a00000000000000000000000000000000000000000000000000000000081526020600482015260248101919091527f43726f776473616c653a20657863656564206d6178696d756d20616d6f756e7460448201527f206f6620746f6b656e2062757961626c6520666f72207468697320706861736560648201526084016108ee565b81610d60611606565b60010160008573ffffffffffffffffffffffffffffffffffffffff1673ffffffffffffffffffffffffffffffffffffffff1681526020019081526020016000206000828254610daf91906126fd565b909155505060405133907fb8f2b29e0392452f4f12ce67b78124d6a4f8d446d06f2ed206be80bf11984bee90610dea90879086908a9061277e565b60405180910390a2610dfc83836117fc565b60405173ffffffffffffffffffffffffffffffffffffffff7f0000000000000000000000000000000000000000000000000000000000000000169085156108fc029086906000818181858888f19350505050158015610e5f573d6000803e3d6000fd5b50505050506109376001600055565b6000610e786107f8565b6107c290836126af565b7f65d7a28e3265b37a6474929f336521b332c1681b933f6cb9f3376673440d862a610eac81611626565b6109376118a8565b6000828152600260205260408120610ab39083611903565b600080610ed761190f565b90506000610ee484610e6e565b905081610a3882670de0b6b3a7640000612672565b600080610f0461190f565b90506000670de0b6b3a7640000610f1b8386612672565b610f2591906126af565b9050610a428161147a565b600080610f3b6116f1565b905060007f000000000000000000000000000000000000000000000000000000000000000073ffffffffffffffffffffffffffffffffffffffff1663313ce5676040518163ffffffff1660e01b8152600401602060405180830381865afa158015610faa573d6000803e3d6000fd5b505050506040513d601f19601f82011682018060405250810190610fce91906124f1565b610fd990600a612663565b610f1b8386612672565b610feb61171c565b610ff361178f565b33600083900361105f576040517f08c379a000000000000000000000000000000000000000000000000000000000815260206004820152601960248201527f43726f776473616c653a20776569416d6f756e7420697320300000000000000060448201526064016108ee565b8151600a14611116576040517f08c379a000000000000000000000000000000000000000000000000000000000815260206004820152604160248201527f43726f776473616c653a206261642073706f6e736f724b657920666f726d617460448201527f2c2069742073686f756c6420636f6e7461696e2031302063686172616374657260648201527f7300000000000000000000000000000000000000000000000000000000000000608482015260a4016108ee565b600061112184610f30565b905061112b6107c8565b8110156111e0576040517f08c379a000000000000000000000000000000000000000000000000000000000815260206004820152604160248201527f43726f776473616c653a2073756263656564206d696e696d756d20616d6f756e60448201527f74206f6620746f6b656e2062757961626c6520666f722074686973207068617360648201527f6500000000000000000000000000000000000000000000000000000000000000608482015260a4016108ee565b60006111eb83610a4a565b90508181101561127f57604080517f08c379a00000000000000000000000000000000000000000000000000000000081526020600482015260248101919091527f43726f776473616c653a20657863656564206d6178696d756d20616d6f756e7460448201527f206f6620746f6b656e2062757961626c6520666f72207468697320706861736560648201526084016108ee565b81611288611606565b60010160008573ffffffffffffffffffffffffffffffffffffffff1673ffffffffffffffffffffffffffffffffffffffff16815260200190815260200160002060008282546112d791906126fd565b909155505060405133907fb8f2b29e0392452f4f12ce67b78124d6a4f8d446d06f2ed206be80bf11984bee90611312908890869089906127da565b60405180910390a261132483836117fc565b6113867f000000000000000000000000000000000000000000000000000000000000000073ffffffffffffffffffffffffffffffffffffffff16337f00000000000000000000000000000000000000000000000000000000000000008861193a565b5050506109016001600055565b7f1ae041e7f694fa9f3da1ca6a86d5f03d7d3c664f8ddea494dd6b1fac8e8727f46113bd81611626565b6002600a5410611429576040517f08c379a000000000000000000000000000000000000000000000000000000000815260206004820181905260248201527f43726f776473616c653a2063616e6e6f7420657863656564207068617365203360448201526064016108ee565b600a546114379060016126fd565b600a5550565b60008181526002602052604081206107c2906119d5565b6000828152600160208190526040909120015461147081611626565b6108488383611652565b60006114846107f8565b6107c29083612672565b600082815260016020908152604080832073ffffffffffffffffffffffffffffffffffffffff8516845290915290205460ff1661090157600082815260016020818152604080842073ffffffffffffffffffffffffffffffffffffffff8616808652925280842080547fffffffffffffffffffffffffffffffffffffffffffffffffffffffffffffff00169093179092559051339285917f2f8788117e7eff1d82e926ec794901d17c78024a50270940304540a733656f0d9190a45050565b6000610ab38373ffffffffffffffffffffffffffffffffffffffff84166119df565b60007fffffffff0000000000000000000000000000000000000000000000000000000082167f7965db0b0000000000000000000000000000000000000000000000000000000014806107c257507f01ffc9a7000000000000000000000000000000000000000000000000000000007fffffffff000000000000000000000000000000000000000000000000000000008316146107c2565b60006004600a546003811061161d5761161d61282d565b60020201905090565b6109378133611a2e565b61163a828261148e565b6000828152600260205260409020610848908261154d565b61165c8282611ae8565b60008281526002602052604090206108489082611ba3565b61167c611bc5565b600380547fffffffffffffffffffffffffffffffffffffffffffffffffffffffffffffff001690557f5db9ee0a495bf2e6ff9c91a7834c1ba4fdd244a5e8aa4e537bd38aeae4b073aa335b60405173ffffffffffffffffffffffffffffffffffffffff909116815260200160405180910390a1565b60006107f37f0000000000000000000000000000000000000000000000000000000000000000611c31565b600260005403611788576040517f08c379a000000000000000000000000000000000000000000000000000000000815260206004820152601f60248201527f5265656e7472616e637947756172643a207265656e7472616e742063616c6c0060448201526064016108ee565b6002600055565b60035460ff161561076a576040517f08c379a000000000000000000000000000000000000000000000000000000000815260206004820152601060248201527f5061757361626c653a207061757365640000000000000000000000000000000060448201526064016108ee565b6040517f2797c6c800000000000000000000000000000000000000000000000000000000815273ffffffffffffffffffffffffffffffffffffffff8381166004830152602482018390527f00000000000000000000000000000000000000000000000000000000000000001690632797c6c890604401600060405180830381600087803b15801561188c57600080fd5b505af11580156118a0573d6000803e3d6000fd5b505050505050565b6118b061178f565b600380547fffffffffffffffffffffffffffffffffffffffffffffffffffffffffffffff001660011790557f62e78cea01bee320cd4e420270b5ea74000d11b0c9f74754ebdbfc544b05a2586116c73390565b6000610ab38383611caf565b60006107f37f0000000000000000000000000000000000000000000000000000000000000000611c31565b6040805173ffffffffffffffffffffffffffffffffffffffff85811660248301528416604482015260648082018490528251808303909101815260849091019091526020810180517bffffffffffffffffffffffffffffffffffffffffffffffffffffffff167f23b872dd000000000000000000000000000000000000000000000000000000001790526119cf908590611cd9565b50505050565b60006107c2825490565b6000818152600183016020526040812054611a26575081546001818101845560008481526020808220909301849055845484825282860190935260409020919091556107c2565b5060006107c2565b600082815260016020908152604080832073ffffffffffffffffffffffffffffffffffffffff8516845290915290205460ff1661090157611a6e81611de8565b611a79836020611e07565b604051602001611a8a92919061285c565b604080517fffffffffffffffffffffffffffffffffffffffffffffffffffffffffffffffe0818403018152908290527f08c379a00000000000000000000000000000000000000000000000000000000082526108ee916004016128dd565b600082815260016020908152604080832073ffffffffffffffffffffffffffffffffffffffff8516845290915290205460ff161561090157600082815260016020908152604080832073ffffffffffffffffffffffffffffffffffffffff8516808552925280832080547fffffffffffffffffffffffffffffffffffffffffffffffffffffffffffffff0016905551339285917ff6391f5c32d9c69d2a47ea670b442974b53935d1edc7fd64eb21e047a839171b9190a45050565b6000610ab38373ffffffffffffffffffffffffffffffffffffffff841661204a565b60035460ff1661076a576040517f08c379a000000000000000000000000000000000000000000000000000000000815260206004820152601460248201527f5061757361626c653a206e6f742070617573656400000000000000000000000060448201526064016108ee565b6000808273ffffffffffffffffffffffffffffffffffffffff1663feaf968c6040518163ffffffff1660e01b815260040160a060405180830381865afa158015611c7f573d6000803e3d6000fd5b505050506040513d601f19601f82011682018060405250810190611ca3919061290a565b50919695505050505050565b6000826000018281548110611cc657611cc661282d565b9060005260206000200154905092915050565b6000611d3b826040518060400160405280602081526020017f5361666545524332303a206c6f772d6c6576656c2063616c6c206661696c65648152508573ffffffffffffffffffffffffffffffffffffffff1661213d9092919063ffffffff16565b9050805160001480611d5c575080806020019051810190611d5c919061295a565b610848576040517f08c379a000000000000000000000000000000000000000000000000000000000815260206004820152602a60248201527f5361666545524332303a204552433230206f7065726174696f6e20646964206e60448201527f6f7420737563636565640000000000000000000000000000000000000000000060648201526084016108ee565b60606107c273ffffffffffffffffffffffffffffffffffffffff831660145b60606000611e16836002612672565b611e219060026126fd565b67ffffffffffffffff811115611e3957611e39612379565b6040519080825280601f01601f191660200182016040528015611e63576020820181803683370190505b5090507f300000000000000000000000000000000000000000000000000000000000000081600081518110611e9a57611e9a61282d565b60200101907effffffffffffffffffffffffffffffffffffffffffffffffffffffffffffff1916908160001a9053507f780000000000000000000000000000000000000000000000000000000000000081600181518110611efd57611efd61282d565b60200101907effffffffffffffffffffffffffffffffffffffffffffffffffffffffffffff1916908160001a9053506000611f39846002612672565b611f449060016126fd565b90505b6001811115611fe1577f303132333435363738396162636465660000000000000000000000000000000085600f1660108110611f8557611f8561282d565b1a60f81b828281518110611f9b57611f9b61282d565b60200101907effffffffffffffffffffffffffffffffffffffffffffffffffffffffffffff1916908160001a90535060049490941c93611fda8161297c565b9050611f47565b508315610ab3576040517f08c379a000000000000000000000000000000000000000000000000000000000815260206004820181905260248201527f537472696e67733a20686578206c656e67746820696e73756666696369656e7460448201526064016108ee565b6000818152600183016020526040812054801561213357600061206e6001836126ea565b8554909150600090612082906001906126ea565b90508181146120e75760008660000182815481106120a2576120a261282d565b90600052602060002001549050808760000184815481106120c5576120c561282d565b6000918252602080832090910192909255918252600188019052604090208390555b85548690806120f8576120f86129b1565b6001900381819060005260206000200160009055905585600101600086815260200190815260200160002060009055600193505050506107c2565b60009150506107c2565b6060610a428484600085856000808673ffffffffffffffffffffffffffffffffffffffff16858760405161217191906129e0565b60006040518083038185875af1925050503d80600081146121ae576040519150601f19603f3d011682016040523d82523d6000602084013e6121b3565b606091505b50915091506121c4878383876121cf565b979650505050505050565b6060831561226557825160000361225e5773ffffffffffffffffffffffffffffffffffffffff85163b61225e576040517f08c379a000000000000000000000000000000000000000000000000000000000815260206004820152601d60248201527f416464726573733a2063616c6c20746f206e6f6e2d636f6e747261637400000060448201526064016108ee565b5081610a42565b610a42838381511561227a5781518083602001fd5b806040517f08c379a00000000000000000000000000000000000000000000000000000000081526004016108ee91906128dd565b6000602082840312156122c057600080fd5b81357fffffffff0000000000000000000000000000000000000000000000000000000081168114610ab357600080fd5b60006020828403121561230257600080fd5b5035919050565b803573ffffffffffffffffffffffffffffffffffffffff8116811461232d57600080fd5b919050565b6000806040838503121561234557600080fd5b8235915061235560208401612309565b90509250929050565b60006020828403121561237057600080fd5b610ab382612309565b7f4e487b7100000000000000000000000000000000000000000000000000000000600052604160045260246000fd5b600082601f8301126123b957600080fd5b813567ffffffffffffffff808211156123d4576123d4612379565b604051601f83017fffffffffffffffffffffffffffffffffffffffffffffffffffffffffffffffe0908116603f0116810190828211818310171561241a5761241a612379565b8160405283815286602085880101111561243357600080fd5b836020870160208301376000602085830101528094505050505092915050565b60006020828403121561246557600080fd5b813567ffffffffffffffff81111561247c57600080fd5b610a42848285016123a8565b6000806040838503121561249b57600080fd5b50508035926020909101359150565b600080604083850312156124bd57600080fd5b82359150602083013567ffffffffffffffff8111156124db57600080fd5b6124e7858286016123a8565b9150509250929050565b60006020828403121561250357600080fd5b815160ff81168114610ab357600080fd5b7f4e487b7100000000000000000000000000000000000000000000000000000000600052601160045260246000fd5b600181815b8085111561259c57817fffffffffffffffffffffffffffffffffffffffffffffffffffffffffffffffff0482111561258257612582612514565b8085161561258f57918102915b93841c9390800290612548565b509250929050565b6000826125b3575060016107c2565b816125c0575060006107c2565b81600181146125d657600281146125e0576125fc565b60019150506107c2565b60ff8411156125f1576125f1612514565b50506001821b6107c2565b5060208310610133831016604e8410600b841016171561261f575081810a6107c2565b6126298383612543565b807fffffffffffffffffffffffffffffffffffffffffffffffffffffffffffffffff0482111561265b5761265b612514565b029392505050565b6000610ab360ff8416836125a4565b6000817fffffffffffffffffffffffffffffffffffffffffffffffffffffffffffffffff04831182151516156126aa576126aa612514565b500290565b6000826126e5577f4e487b7100000000000000000000000000000000000000000000000000000000600052601260045260246000fd5b500490565b818103818111156107c2576107c2612514565b808201808211156107c2576107c2612514565b60005b8381101561272b578181015183820152602001612713565b50506000910152565b6000815180845261274c816020860160208601612710565b601f017fffffffffffffffffffffffffffffffffffffffffffffffffffffffffffffffe0169290920160200192915050565b83815282602082015260806040820152600360808201527f455448000000000000000000000000000000000000000000000000000000000060a082015260c0606082015260006127d160c0830184612734565b95945050505050565b83815282602082015260806040820152600460808201527f555344540000000000000000000000000000000000000000000000000000000060a082015260c0606082015260006127d160c0830184612734565b7f4e487b7100000000000000000000000000000000000000000000000000000000600052603260045260246000fd5b7f416363657373436f6e74726f6c3a206163636f756e7420000000000000000000815260008351612894816017850160208801612710565b7f206973206d697373696e6720726f6c652000000000000000000000000000000060179184019182015283516128d1816028840160208801612710565b01602801949350505050565b602081526000610ab36020830184612734565b805169ffffffffffffffffffff8116811461232d57600080fd5b600080600080600060a0868803121561292257600080fd5b61292b866128f0565b945060208601519350604086015192506060860151915061294e608087016128f0565b90509295509295909350565b60006020828403121561296c57600080fd5b81518015158114610ab357600080fd5b60008161298b5761298b612514565b507fffffffffffffffffffffffffffffffffffffffffffffffffffffffffffffffff0190565b7f4e487b7100000000000000000000000000000000000000000000000000000000600052603160045260246000fd5b600082516129f2818460208701612710565b919091019291505056fea164736f6c6343000810000a",
  "devdoc": {
    "events": {
      "TokenPurchased(address,uint256,uint256,string,string)": {
        "params": {
          "amount": "amount of tokens purchased",
          "currency": "currency used to process purchase",
          "purchaser": "who paid for the tokens",
          "sponsorKey": "sponsor key (grant advantages on orivium nfts)",
          "value": "weis paid for purchase"
        }
      }
    },
    "kind": "dev",
    "methods": {
      "getRoleAdmin(bytes32)": {
        "details": "Returns the admin role that controls `role`. See {grantRole} and {revokeRole}. To change a role's admin, use {_setRoleAdmin}."
      },
      "getRoleMember(bytes32,uint256)": {
        "details": "Returns one of the accounts that have `role`. `index` must be a value between 0 and {getRoleMemberCount}, non-inclusive. Role bearers are not sorted in any particular way, and their ordering may change at any point. WARNING: When using {getRoleMember} and {getRoleMemberCount}, make sure you perform all queries on the same block. See the following https://forum.openzeppelin.com/t/iterating-over-elements-on-enumerableset-in-openzeppelin-contracts/2296[forum post] for more information."
      },
      "getRoleMemberCount(bytes32)": {
        "details": "Returns the number of accounts that have `role`. Can be used together with {getRoleMember} to enumerate all bearers of a role."
      },
      "grantRole(bytes32,address)": {
        "details": "Grants `role` to `account`. If `account` had not been already granted `role`, emits a {RoleGranted} event. Requirements: - the caller must have ``role``'s admin role. May emit a {RoleGranted} event."
      },
      "hasRole(bytes32,address)": {
        "details": "Returns `true` if `account` has been granted `role`."
      },
      "paused()": {
        "details": "Returns true if the contract is paused, and false otherwise."
      },
      "renounceRole(bytes32,address)": {
        "details": "Revokes `role` from the calling account. Roles are often managed via {grantRole} and {revokeRole}: this function's purpose is to provide a mechanism for accounts to lose their privileges if they are compromised (such as when a trusted device is misplaced). If the calling account had been revoked `role`, emits a {RoleRevoked} event. Requirements: - the caller must be `account`. May emit a {RoleRevoked} event."
      },
      "revokeRole(bytes32,address)": {
        "details": "Revokes `role` from `account`. If `account` had been granted `role`, emits a {RoleRevoked} event. Requirements: - the caller must have ``role``'s admin role. May emit a {RoleRevoked} event."
      },
      "supportsInterface(bytes4)": {
        "details": "See {IERC165-supportsInterface}."
      }
    },
    "title": "Orivium Token Crowdsale",
    "version": 1
  },
  "userdoc": {
    "events": {
      "TokenPurchased(address,uint256,uint256,string,string)": {
        "notice": "Event for token purchase logging"
      }
    },
    "kind": "user",
    "methods": {
      "CROWDSALE_ADMIN_ROLE()": {
        "notice": "Role CROWDSALE_ADMIN_ROLE allows to step into next phase"
      },
      "PAUSER_ROLE()": {
        "notice": "Role PAUSER_ROLE allows to pause and unpause crowdsale"
      },
      "buyTokens(string)": {
        "notice": "buy orivium token with ETHThis function has a non-reentrancy guard, so it shouldn't be called by \t\tanother `nonReentrant` function."
      },
      "buyTokensWithUSDT(uint256,string)": {
        "notice": "buy orivium token with USDTThis function has a non-reentrancy guard, so it shouldn't be called by \t\tanother `nonReentrant` function."
      },
      "fundsCollector()": {
        "notice": "funds collector wallet address"
      },
      "getBuyableAmount(address)": {
        "notice": "get remaining buyable amount for given addres on current phase"
      },
      "getETHPriceFor(uint256)": {
        "notice": "get ETH price for given wei amount in ORI"
      },
      "getMinimumBuyableAmount()": {
        "notice": "get minimal amount to buy"
      },
      "getORIAmountForETH(uint256)": {
        "notice": "get ORI amount for given ETH wei amount"
      },
      "getORIAmountForUSD(uint256)": {
        "notice": "get ORI amount for given USD wei amount"
      },
      "getORIAmountForUSDT(uint256)": {
        "notice": "get ORI amount for given USDT wei amount"
      },
      "getUSDPriceFor(uint256)": {
        "notice": "get ETH price for given wei amount in USD"
      },
      "getUSDTPriceFor(uint256)": {
        "notice": "get ETH price for given wei amount in USDT"
      },
      "maxBuyableAmount()": {
        "notice": "maximum buyable amount by wallet by phase"
      },
      "minBuyableAmount()": {
        "notice": "minimum buyable amount by wallet by phase"
      },
      "pause()": {
        "notice": "pause crowdsale"
      },
      "phaseIndex()": {
        "notice": "Index of the current phase"
      },
      "phases(uint256)": {
        "notice": "array containing information about crowdsale phases"
      },
      "rate()": {
        "notice": "get current USD/ORI conversion rate"
      },
      "unpause()": {
        "notice": "unpause crowdsale"
      },
      "updateRate()": {
        "notice": "step into next phase"
      },
      "usdt()": {
        "notice": "usdt token address"
      },
      "vesting()": {
        "notice": "orivium token vesting contract address"
      }
    },
    "version": 1
  },
  "storageLayout": {
    "storage": [
      {
        "astId": 966,
        "contract": "contracts/sales/CrowdsaleL1.sol:CrowdsaleL1",
        "label": "_status",
        "offset": 0,
        "slot": "0",
        "type": "t_uint256"
      },
      {
        "astId": 333,
        "contract": "contracts/sales/CrowdsaleL1.sol:CrowdsaleL1",
        "label": "_roles",
        "offset": 0,
        "slot": "1",
        "type": "t_mapping(t_bytes32,t_struct(RoleData)328_storage)"
      },
      {
        "astId": 643,
        "contract": "contracts/sales/CrowdsaleL1.sol:CrowdsaleL1",
        "label": "_roleMembers",
        "offset": 0,
        "slot": "2",
        "type": "t_mapping(t_bytes32,t_struct(AddressSet)5674_storage)"
      },
      {
        "astId": 865,
        "contract": "contracts/sales/CrowdsaleL1.sol:CrowdsaleL1",
        "label": "_paused",
        "offset": 0,
        "slot": "3",
        "type": "t_bool"
      },
      {
        "astId": 6038,
        "contract": "contracts/sales/CrowdsaleL1.sol:CrowdsaleL1",
        "label": "phases",
        "offset": 0,
        "slot": "4",
        "type": "t_array(t_struct(Phase)6032_storage)3_storage"
      },
      {
        "astId": 6041,
        "contract": "contracts/sales/CrowdsaleL1.sol:CrowdsaleL1",
        "label": "phaseIndex",
        "offset": 0,
        "slot": "10",
        "type": "t_uint256"
      }
    ],
    "types": {
      "t_address": {
        "encoding": "inplace",
        "label": "address",
        "numberOfBytes": "20"
      },
      "t_array(t_bytes32)dyn_storage": {
        "base": "t_bytes32",
        "encoding": "dynamic_array",
        "label": "bytes32[]",
        "numberOfBytes": "32"
      },
      "t_array(t_struct(Phase)6032_storage)3_storage": {
        "base": "t_struct(Phase)6032_storage",
        "encoding": "inplace",
        "label": "struct CrowdsaleL1.Phase[3]",
        "numberOfBytes": "192"
      },
      "t_bool": {
        "encoding": "inplace",
        "label": "bool",
        "numberOfBytes": "1"
      },
      "t_bytes32": {
        "encoding": "inplace",
        "label": "bytes32",
        "numberOfBytes": "32"
      },
      "t_mapping(t_address,t_bool)": {
        "encoding": "mapping",
        "key": "t_address",
        "label": "mapping(address => bool)",
        "numberOfBytes": "32",
        "value": "t_bool"
      },
      "t_mapping(t_address,t_uint256)": {
        "encoding": "mapping",
        "key": "t_address",
        "label": "mapping(address => uint256)",
        "numberOfBytes": "32",
        "value": "t_uint256"
      },
      "t_mapping(t_bytes32,t_struct(AddressSet)5674_storage)": {
        "encoding": "mapping",
        "key": "t_bytes32",
        "label": "mapping(bytes32 => struct EnumerableSet.AddressSet)",
        "numberOfBytes": "32",
        "value": "t_struct(AddressSet)5674_storage"
      },
      "t_mapping(t_bytes32,t_struct(RoleData)328_storage)": {
        "encoding": "mapping",
        "key": "t_bytes32",
        "label": "mapping(bytes32 => struct AccessControl.RoleData)",
        "numberOfBytes": "32",
        "value": "t_struct(RoleData)328_storage"
      },
      "t_mapping(t_bytes32,t_uint256)": {
        "encoding": "mapping",
        "key": "t_bytes32",
        "label": "mapping(bytes32 => uint256)",
        "numberOfBytes": "32",
        "value": "t_uint256"
      },
      "t_struct(AddressSet)5674_storage": {
        "encoding": "inplace",
        "label": "struct EnumerableSet.AddressSet",
        "members": [
          {
            "astId": 5673,
            "contract": "contracts/sales/CrowdsaleL1.sol:CrowdsaleL1",
            "label": "_inner",
            "offset": 0,
            "slot": "0",
            "type": "t_struct(Set)5359_storage"
          }
        ],
        "numberOfBytes": "64"
      },
      "t_struct(Phase)6032_storage": {
        "encoding": "inplace",
        "label": "struct CrowdsaleL1.Phase",
        "members": [
          {
            "astId": 6026,
            "contract": "contracts/sales/CrowdsaleL1.sol:CrowdsaleL1",
            "label": "rate",
            "offset": 0,
            "slot": "0",
            "type": "t_uint256"
          },
          {
            "astId": 6031,
            "contract": "contracts/sales/CrowdsaleL1.sol:CrowdsaleL1",
            "label": "boughtAmounts",
            "offset": 0,
            "slot": "1",
            "type": "t_mapping(t_address,t_uint256)"
          }
        ],
        "numberOfBytes": "64"
      },
      "t_struct(RoleData)328_storage": {
        "encoding": "inplace",
        "label": "struct AccessControl.RoleData",
        "members": [
          {
            "astId": 325,
            "contract": "contracts/sales/CrowdsaleL1.sol:CrowdsaleL1",
            "label": "members",
            "offset": 0,
            "slot": "0",
            "type": "t_mapping(t_address,t_bool)"
          },
          {
            "astId": 327,
            "contract": "contracts/sales/CrowdsaleL1.sol:CrowdsaleL1",
            "label": "adminRole",
            "offset": 0,
            "slot": "1",
            "type": "t_bytes32"
          }
        ],
        "numberOfBytes": "64"
      },
      "t_struct(Set)5359_storage": {
        "encoding": "inplace",
        "label": "struct EnumerableSet.Set",
        "members": [
          {
            "astId": 5354,
            "contract": "contracts/sales/CrowdsaleL1.sol:CrowdsaleL1",
            "label": "_values",
            "offset": 0,
            "slot": "0",
            "type": "t_array(t_bytes32)dyn_storage"
          },
          {
            "astId": 5358,
            "contract": "contracts/sales/CrowdsaleL1.sol:CrowdsaleL1",
            "label": "_indexes",
            "offset": 0,
            "slot": "1",
            "type": "t_mapping(t_bytes32,t_uint256)"
          }
        ],
        "numberOfBytes": "64"
      },
      "t_uint256": {
        "encoding": "inplace",
        "label": "uint256",
        "numberOfBytes": "32"
      }
    }
  }
}