{
  "address": "0x5eDF44584bf2001671e908bD779b5d1090bdD460",
  "abi": [
    {
      "inputs": [
        {
          "internalType": "uint256[3]",
          "name": "_phaseRates",
          "type": "uint256[3]"
        },
        {
          "internalType": "address",
          "name": "_usdt",
          "type": "address"
        },
        {
          "internalType": "address",
          "name": "_arb",
          "type": "address"
        },
        {
          "internalType": "address payable",
          "name": "_fundsCollector",
          "type": "address"
        },
        {
          "internalType": "address",
          "name": "_vesting",
          "type": "address"
        },
        {
          "internalType": "address",
          "name": "_ethPriceFeed",
          "type": "address"
        },
        {
          "internalType": "address",
          "name": "_arbPriceFeed",
          "type": "address"
        },
        {
          "internalType": "address",
          "name": "_usdtPriceFeed",
          "type": "address"
        },
        {
          "internalType": "uint256",
          "name": "_maxBuyableAmount",
          "type": "uint256"
        },
        {
          "internalType": "uint256",
          "name": "_minBuyableAmount",
          "type": "uint256"
        }
      ],
      "stateMutability": "nonpayable",
      "type": "constructor"
    },
    {
      "anonymous": false,
      "inputs": [
        {
          "indexed": false,
          "internalType": "address",
          "name": "account",
          "type": "address"
        }
      ],
      "name": "Paused",
      "type": "event"
    },
    {
      "anonymous": false,
      "inputs": [
        {
          "indexed": true,
          "internalType": "bytes32",
          "name": "role",
          "type": "bytes32"
        },
        {
          "indexed": true,
          "internalType": "bytes32",
          "name": "previousAdminRole",
          "type": "bytes32"
        },
        {
          "indexed": true,
          "internalType": "bytes32",
          "name": "newAdminRole",
          "type": "bytes32"
        }
      ],
      "name": "RoleAdminChanged",
      "type": "event"
    },
    {
      "anonymous": false,
      "inputs": [
        {
          "indexed": true,
          "internalType": "bytes32",
          "name": "role",
          "type": "bytes32"
        },
        {
          "indexed": true,
          "internalType": "address",
          "name": "account",
          "type": "address"
        },
        {
          "indexed": true,
          "internalType": "address",
          "name": "sender",
          "type": "address"
        }
      ],
      "name": "RoleGranted",
      "type": "event"
    },
    {
      "anonymous": false,
      "inputs": [
        {
          "indexed": true,
          "internalType": "bytes32",
          "name": "role",
          "type": "bytes32"
        },
        {
          "indexed": true,
          "internalType": "address",
          "name": "account",
          "type": "address"
        },
        {
          "indexed": true,
          "internalType": "address",
          "name": "sender",
          "type": "address"
        }
      ],
      "name": "RoleRevoked",
      "type": "event"
    },
    {
      "anonymous": false,
      "inputs": [
        {
          "indexed": true,
          "internalType": "address",
          "name": "purchaser",
          "type": "address"
        },
        {
          "indexed": false,
          "internalType": "uint256",
          "name": "value",
          "type": "uint256"
        },
        {
          "indexed": false,
          "internalType": "uint256",
          "name": "amount",
          "type": "uint256"
        },
        {
          "indexed": false,
          "internalType": "string",
          "name": "currency",
          "type": "string"
        },
        {
          "indexed": false,
          "internalType": "string",
          "name": "sponsorKey",
          "type": "string"
        }
      ],
      "name": "TokenPurchased",
      "type": "event"
    },
    {
      "anonymous": false,
      "inputs": [
        {
          "indexed": false,
          "internalType": "address",
          "name": "account",
          "type": "address"
        }
      ],
      "name": "Unpaused",
      "type": "event"
    },
    {
      "stateMutability": "payable",
      "type": "fallback"
    },
    {
      "inputs": [],
      "name": "CROWDSALE_ADMIN_ROLE",
      "outputs": [
        {
          "internalType": "bytes32",
          "name": "",
          "type": "bytes32"
        }
      ],
      "stateMutability": "view",
      "type": "function"
    },
    {
      "inputs": [],
      "name": "DEFAULT_ADMIN_ROLE",
      "outputs": [
        {
          "internalType": "bytes32",
          "name": "",
          "type": "bytes32"
        }
      ],
      "stateMutability": "view",
      "type": "function"
    },
    {
      "inputs": [],
      "name": "PAUSER_ROLE",
      "outputs": [
        {
          "internalType": "bytes32",
          "name": "",
          "type": "bytes32"
        }
      ],
      "stateMutability": "view",
      "type": "function"
    },
    {
      "inputs": [],
      "name": "arb",
      "outputs": [
        {
          "internalType": "contract ERC20",
          "name": "",
          "type": "address"
        }
      ],
      "stateMutability": "view",
      "type": "function"
    },
    {
      "inputs": [
        {
          "internalType": "string",
          "name": "sponsorKey",
          "type": "string"
        }
      ],
      "name": "buyTokens",
      "outputs": [],
      "stateMutability": "payable",
      "type": "function"
    },
    {
      "inputs": [],
      "name": "buyTokens",
      "outputs": [],
      "stateMutability": "payable",
      "type": "function"
    },
    {
      "inputs": [
        {
          "internalType": "uint256",
          "name": "weiAmount",
          "type": "uint256"
        },
        {
          "internalType": "string",
          "name": "sponsorKey",
          "type": "string"
        }
      ],
      "name": "buyTokensWithARB",
      "outputs": [],
      "stateMutability": "payable",
      "type": "function"
    },
    {
      "inputs": [
        {
          "internalType": "uint256",
          "name": "weiAmount",
          "type": "uint256"
        }
      ],
      "name": "buyTokensWithARB",
      "outputs": [],
      "stateMutability": "payable",
      "type": "function"
    },
    {
      "inputs": [
        {
          "internalType": "uint256",
          "name": "weiAmount",
          "type": "uint256"
        }
      ],
      "name": "buyTokensWithUSDT",
      "outputs": [],
      "stateMutability": "payable",
      "type": "function"
    },
    {
      "inputs": [
        {
          "internalType": "uint256",
          "name": "weiAmount",
          "type": "uint256"
        },
        {
          "internalType": "string",
          "name": "sponsorKey",
          "type": "string"
        }
      ],
      "name": "buyTokensWithUSDT",
      "outputs": [],
      "stateMutability": "payable",
      "type": "function"
    },
    {
      "inputs": [],
      "name": "fundsCollector",
      "outputs": [
        {
          "internalType": "address payable",
          "name": "",
          "type": "address"
        }
      ],
      "stateMutability": "view",
      "type": "function"
    },
    {
      "inputs": [
        {
          "internalType": "uint256",
          "name": "weiAmount",
          "type": "uint256"
        }
      ],
      "name": "getARBPriceFor",
      "outputs": [
        {
          "internalType": "uint256",
          "name": "",
          "type": "uint256"
        }
      ],
      "stateMutability": "view",
      "type": "function"
    },
    {
      "inputs": [
        {
          "internalType": "address",
          "name": "beneficiary",
          "type": "address"
        }
      ],
      "name": "getBuyableAmount",
      "outputs": [
        {
          "internalType": "uint256",
          "name": "",
          "type": "uint256"
        }
      ],
      "stateMutability": "view",
      "type": "function"
    },
    {
      "inputs": [
        {
          "internalType": "uint256",
          "name": "weiAmount",
          "type": "uint256"
        }
      ],
      "name": "getETHPriceFor",
      "outputs": [
        {
          "internalType": "uint256",
          "name": "",
          "type": "uint256"
        }
      ],
      "stateMutability": "view",
      "type": "function"
    },
    {
      "inputs": [],
      "name": "getMinimumBuyableAmount",
      "outputs": [
        {
          "internalType": "uint256",
          "name": "",
          "type": "uint256"
        }
      ],
      "stateMutability": "view",
      "type": "function"
    },
    {
      "inputs": [
        {
          "internalType": "uint256",
          "name": "weiAmount",
          "type": "uint256"
        }
      ],
      "name": "getORIAmountForARB",
      "outputs": [
        {
          "internalType": "uint256",
          "name": "",
          "type": "uint256"
        }
      ],
      "stateMutability": "view",
      "type": "function"
    },
    {
      "inputs": [
        {
          "internalType": "uint256",
          "name": "weiAmount",
          "type": "uint256"
        }
      ],
      "name": "getORIAmountForETH",
      "outputs": [
        {
          "internalType": "uint256",
          "name": "",
          "type": "uint256"
        }
      ],
      "stateMutability": "view",
      "type": "function"
    },
    {
      "inputs": [
        {
          "internalType": "uint256",
          "name": "weiAmount",
          "type": "uint256"
        }
      ],
      "name": "getORIAmountForUSD",
      "outputs": [
        {
          "internalType": "uint256",
          "name": "",
          "type": "uint256"
        }
      ],
      "stateMutability": "view",
      "type": "function"
    },
    {
      "inputs": [
        {
          "internalType": "uint256",
          "name": "weiAmount",
          "type": "uint256"
        }
      ],
      "name": "getORIAmountForUSDT",
      "outputs": [
        {
          "internalType": "uint256",
          "name": "",
          "type": "uint256"
        }
      ],
      "stateMutability": "view",
      "type": "function"
    },
    {
      "inputs": [
        {
          "internalType": "bytes32",
          "name": "role",
          "type": "bytes32"
        }
      ],
      "name": "getRoleAdmin",
      "outputs": [
        {
          "internalType": "bytes32",
          "name": "",
          "type": "bytes32"
        }
      ],
      "stateMutability": "view",
      "type": "function"
    },
    {
      "inputs": [
        {
          "internalType": "bytes32",
          "name": "role",
          "type": "bytes32"
        },
        {
          "internalType": "uint256",
          "name": "index",
          "type": "uint256"
        }
      ],
      "name": "getRoleMember",
      "outputs": [
        {
          "internalType": "address",
          "name": "",
          "type": "address"
        }
      ],
      "stateMutability": "view",
      "type": "function"
    },
    {
      "inputs": [
        {
          "internalType": "bytes32",
          "name": "role",
          "type": "bytes32"
        }
      ],
      "name": "getRoleMemberCount",
      "outputs": [
        {
          "internalType": "uint256",
          "name": "",
          "type": "uint256"
        }
      ],
      "stateMutability": "view",
      "type": "function"
    },
    {
      "inputs": [
        {
          "internalType": "uint256",
          "name": "weiAmount",
          "type": "uint256"
        }
      ],
      "name": "getUSDPriceFor",
      "outputs": [
        {
          "internalType": "uint256",
          "name": "",
          "type": "uint256"
        }
      ],
      "stateMutability": "view",
      "type": "function"
    },
    {
      "inputs": [
        {
          "internalType": "uint256",
          "name": "weiAmount",
          "type": "uint256"
        }
      ],
      "name": "getUSDTPriceFor",
      "outputs": [
        {
          "internalType": "uint256",
          "name": "",
          "type": "uint256"
        }
      ],
      "stateMutability": "view",
      "type": "function"
    },
    {
      "inputs": [
        {
          "internalType": "bytes32",
          "name": "role",
          "type": "bytes32"
        },
        {
          "internalType": "address",
          "name": "account",
          "type": "address"
        }
      ],
      "name": "grantRole",
      "outputs": [],
      "stateMutability": "nonpayable",
      "type": "function"
    },
    {
      "inputs": [
        {
          "internalType": "bytes32",
          "name": "role",
          "type": "bytes32"
        },
        {
          "internalType": "address",
          "name": "account",
          "type": "address"
        }
      ],
      "name": "hasRole",
      "outputs": [
        {
          "internalType": "bool",
          "name": "",
          "type": "bool"
        }
      ],
      "stateMutability": "view",
      "type": "function"
    },
    {
      "inputs": [],
      "name": "maxBuyableAmount",
      "outputs": [
        {
          "internalType": "uint256",
          "name": "",
          "type": "uint256"
        }
      ],
      "stateMutability": "view",
      "type": "function"
    },
    {
      "inputs": [],
      "name": "minBuyableAmount",
      "outputs": [
        {
          "internalType": "uint256",
          "name": "",
          "type": "uint256"
        }
      ],
      "stateMutability": "view",
      "type": "function"
    },
    {
      "inputs": [],
      "name": "pause",
      "outputs": [],
      "stateMutability": "nonpayable",
      "type": "function"
    },
    {
      "inputs": [],
      "name": "paused",
      "outputs": [
        {
          "internalType": "bool",
          "name": "",
          "type": "bool"
        }
      ],
      "stateMutability": "view",
      "type": "function"
    },
    {
      "inputs": [],
      "name": "phaseIndex",
      "outputs": [
        {
          "internalType": "uint256",
          "name": "",
          "type": "uint256"
        }
      ],
      "stateMutability": "view",
      "type": "function"
    },
    {
      "inputs": [
        {
          "internalType": "uint256",
          "name": "",
          "type": "uint256"
        }
      ],
      "name": "phases",
      "outputs": [
        {
          "internalType": "uint256",
          "name": "rate",
          "type": "uint256"
        }
      ],
      "stateMutability": "view",
      "type": "function"
    },
    {
      "inputs": [],
      "name": "rate",
      "outputs": [
        {
          "internalType": "uint256",
          "name": "",
          "type": "uint256"
        }
      ],
      "stateMutability": "view",
      "type": "function"
    },
    {
      "inputs": [
        {
          "internalType": "bytes32",
          "name": "role",
          "type": "bytes32"
        },
        {
          "internalType": "address",
          "name": "account",
          "type": "address"
        }
      ],
      "name": "renounceRole",
      "outputs": [],
      "stateMutability": "nonpayable",
      "type": "function"
    },
    {
      "inputs": [
        {
          "internalType": "bytes32",
          "name": "role",
          "type": "bytes32"
        },
        {
          "internalType": "address",
          "name": "account",
          "type": "address"
        }
      ],
      "name": "revokeRole",
      "outputs": [],
      "stateMutability": "nonpayable",
      "type": "function"
    },
    {
      "inputs": [
        {
          "internalType": "bytes4",
          "name": "interfaceId",
          "type": "bytes4"
        }
      ],
      "name": "supportsInterface",
      "outputs": [
        {
          "internalType": "bool",
          "name": "",
          "type": "bool"
        }
      ],
      "stateMutability": "view",
      "type": "function"
    },
    {
      "inputs": [],
      "name": "unpause",
      "outputs": [],
      "stateMutability": "nonpayable",
      "type": "function"
    },
    {
      "inputs": [],
      "name": "updateRate",
      "outputs": [],
      "stateMutability": "nonpayable",
      "type": "function"
    },
    {
      "inputs": [],
      "name": "usdt",
      "outputs": [
        {
          "internalType": "contract ERC20",
          "name": "",
          "type": "address"
        }
      ],
      "stateMutability": "view",
      "type": "function"
    },
    {
      "inputs": [],
      "name": "vesting",
      "outputs": [
        {
          "internalType": "contract Vesting",
          "name": "",
          "type": "address"
        }
      ],
      "stateMutability": "view",
      "type": "function"
    },
    {
      "stateMutability": "payable",
      "type": "receive"
    }
  ],
  "transactionHash": "0xef9da4b95f75245a2b326468d64e093c9d414d5146b0c452ec629ff8ba539ea5",
  "args": [
    [
      "100000000000",
      "62500000000",
      "31250000000"
    ],
    "0xFd086bC7CD5C481DCC9C85ebE478A1C0b69FCbb9",
    "0x912CE59144191C1204E64559FE8253a0e49E6548",
    "0xf310366666882274F2bF184F9Ab790906142fF9B",
    "0xf7E5CB07f124fCfAF76361DAAe01c954e9b7aCcE",
    "0x639Fe6ab55C921f74e7fac1ee960C0B6293ba612",
    "0xb2A824043730FE05F3DA2efaFa1CBbe83fa548D6",
    "0x3f3f5dF88dC9F13eac63DF89EC16ef6e7E25DdE7",
    "500000000000",
    "10000000000"
  ],
  "numDeployments": 1,
  "solcInputHash": "1dd4cf646caeba09b7d208d4269dcb69",
  "bytecode": "0x6101a06040523480156200001257600080fd5b506040516200390f3803806200390f8339810160408190526200003591620005cf565b60016000556003805460ff191690556001600160a01b038716620000b75760405162461bcd60e51b815260206004820152602e60248201527f43726f776473616c653a2066756e647320636f6c6c6563746f7220697320746860448201526d65207a65726f206164647265737360901b60648201526084015b60405180910390fd5b6001600160a01b038916620001215760405162461bcd60e51b815260206004820152602960248201527f43726f776473616c653a207573647420746f6b656e20697320746865207a65726044820152686f206164647265737360b81b6064820152608401620000ae565b6001600160a01b0388166200018a5760405162461bcd60e51b815260206004820152602860248201527f43726f776473616c653a2061726220746f6b656e20697320746865207a65726f604482015267206164647265737360c01b6064820152608401620000ae565b6001600160a01b038616620001f15760405162461bcd60e51b815260206004820152602660248201527f43726f776473616c653a2076657374696e6720697320746865207a65726f206160448201526564647265737360d01b6064820152608401620000ae565b6001600160a01b0385166200025f5760405162461bcd60e51b815260206004820152602d60248201527f43726f776473616c653a2065746820707269636520666565642069732074686560448201526c207a65726f206164647265737360981b6064820152608401620000ae565b6001600160a01b038416620002cd5760405162461bcd60e51b815260206004820152602d60248201527f43726f776473616c653a2061726220707269636520666565642069732074686560448201526c207a65726f206164647265737360981b6064820152608401620000ae565b6001600160a01b0383166200033c5760405162461bcd60e51b815260206004820152602e60248201527f43726f776473616c653a2075736474207072696365206665656420697320746860448201526d65207a65726f206164647265737360901b6064820152608401620000ae565b808211620003b35760405162461bcd60e51b815260206004820152603e60248201527f43726f776473616c653a206d61782062757961626c6520616d6f756e7420697360448201527f206c6f776572207468616e206d696e2062757961626c6520616d6f756e7400006064820152608401620000ae565b620003c06000336200045e565b60005b600381101562000417578a8160038110620003e257620003e2620006ec565b602002015160048260038110620003fd57620003fd620006ec565b6002020155806200040e8162000702565b915050620003c3565b506000600a556001600160a01b039687166101205297861660e0529585166101005292841661018052908316608052821660a0521660c0526101405261016052506200072a565b620004758282620004a160201b62001a911760201c565b60008281526002602090815260409091206200049c91839062001b506200052a821b17901c565b505050565b60008281526001602090815260408083206001600160a01b038516845290915290205460ff16620005265760008281526001602081815260408084206001600160a01b0386168086529252808420805460ff19169093179092559051339285917f2f8788117e7eff1d82e926ec794901d17c78024a50270940304540a733656f0d9190a45b5050565b600062000541836001600160a01b0384166200054a565b90505b92915050565b6000818152600183016020526040812054620005935750815460018181018455600084815260208082209093018490558454848252828601909352604090209190915562000544565b50600062000544565b634e487b7160e01b600052604160045260246000fd5b80516001600160a01b0381168114620005ca57600080fd5b919050565b6000806000806000806000806000806101808b8d031215620005f057600080fd5b8b601f8c01126200060057600080fd5b604051606081016001600160401b03811182821017156200062557620006256200059c565b6040528060608d018e8111156200063b57600080fd5b8d5b81811015620006575780518352602092830192016200063d565b50829c506200066681620005b2565b9b505050506200067960808c01620005b2565b97506200068960a08c01620005b2565b96506200069960c08c01620005b2565b9550620006a960e08c01620005b2565b9450620006ba6101008c01620005b2565b9350620006cb6101208c01620005b2565b92506101408b015191506101608b015190509295989b9194979a5092959850565b634e487b7160e01b600052603260045260246000fd5b6000600182016200072357634e487b7160e01b600052601160045260246000fd5b5060010190565b60805160a05160c05160e0516101005161012051610140516101605161018051613120620007ef600039600081816104e50152611d8101526000818161038701526108f001526000818161076f0152610f5601526000818161049c01528181610cf1015281816112e701526119710152600081816106e801528181610cb901528181611396015261148201526000818161041001528181610e670152818161158a015261193901526000611f2201526000611fa801526000611fdf01526131206000f3fe6080604052600436106102bf5760003560e01c80637c6debc21161016e578063ba01db86116100cb578063ca15c8731161007f578063d547741f11610064578063d547741f146107d9578063da49eb9e146107f9578063e63ab1e914610819576102ce565b8063ca15c873146107b9578063d0febe4c146102ce576102ce565b8063c6b54111116100b0578063c6b541111461075d578063c73eb6d714610791578063c7fee63e146107a4576102ce565b8063ba01db861461072a578063c3a30bcb1461073d576102ce565b80639e9cc13511610122578063a217fddf11610107578063a217fddf146106c1578063acb5fedf146106d6578063b4939ad51461070a576102ce565b80639e9cc135146106815780639fa93723146106a1576102ce565b806385fcaac51161015357806385fcaac5146105ee5780639010d07c1461060e57806391d148541461062e576102ce565b80637c6debc2146105b95780638456cb59146105d9576102ce565b806336568abe1161021c5780635c975abb116101d05780636055e05a116101b55780636055e05a14610566578063658297f4146105865780636f85e62c146105a6576102ce565b80635c975abb1461053b5780635ef8086f14610553576102ce565b80633f4ba83a116102015780633f4ba83a146104be57806344c63eec146104d35780634a92683514610507576102ce565b806336568abe1461046a5780633a8c33381461048a576102ce565b80632c4e722e116102735780632f2ff15d116102585780632f2ff15d146103de5780632f48ab7d146103fe578063313f303114610457576102ce565b80632c4e722e146103a95780632e37eef6146103be576102ce565b8063248a9ca3116102a4578063248a9ca31461032e57806324ba05af1461035f5780632511b18214610375576102ce565b806301ffc9a7146102d6578063078c91ff1461030b576102ce565b366102ce576102cc61084d565b005b6102cc61084d565b3480156102e257600080fd5b506102f66102f1366004612972565b61088d565b60405190151581526020015b60405180910390f35b34801561031757600080fd5b506103206108e9565b604051908152602001610302565b34801561033a57600080fd5b506103206103493660046129b4565b6000908152600160208190526040909120015490565b34801561036b57600080fd5b50610320600a5481565b34801561038157600080fd5b506103207f000000000000000000000000000000000000000000000000000000000000000081565b3480156103b557600080fd5b50610320610919565b3480156103ca57600080fd5b506103206103d93660046129b4565b610929565b3480156103ea57600080fd5b506102cc6103f93660046129f6565b610943565b34801561040a57600080fd5b506104327f000000000000000000000000000000000000000000000000000000000000000081565b60405173ffffffffffffffffffffffffffffffffffffffff9091168152602001610302565b6102cc610465366004612afc565b61096e565b34801561047657600080fd5b506102cc6104853660046129f6565b610d27565b34801561049657600080fd5b506104327f000000000000000000000000000000000000000000000000000000000000000081565b3480156104ca57600080fd5b506102cc610dd6565b3480156104df57600080fd5b506104327f000000000000000000000000000000000000000000000000000000000000000081565b34801561051357600080fd5b506103207f1ae041e7f694fa9f3da1ca6a86d5f03d7d3c664f8ddea494dd6b1fac8e8727f481565b34801561054757600080fd5b5060035460ff166102f6565b6102cc6105613660046129b4565b610e0b565b34801561057257600080fd5b506103206105813660046129b4565b610e4a565b34801561059257600080fd5b506103206105a1366004612b43565b610f1b565b6102cc6105b4366004612b5e565b610f8b565b3480156105c557600080fd5b506103206105d43660046129b4565b61133f565b3480156105e557600080fd5b506102cc611353565b3480156105fa57600080fd5b506103206106093660046129b4565b611385565b34801561061a57600080fd5b50610432610629366004612b93565b61144d565b34801561063a57600080fd5b506102f66106493660046129f6565b600091825260016020908152604080842073ffffffffffffffffffffffffffffffffffffffff93909316845291905290205460ff1690565b34801561068d57600080fd5b5061032061069c3660046129b4565b611465565b3480156106ad57600080fd5b506103206106bc3660046129b4565b6114eb565b3480156106cd57600080fd5b50610320600081565b3480156106e257600080fd5b506104327f000000000000000000000000000000000000000000000000000000000000000081565b34801561071657600080fd5b506103206107253660046129b4565b611518565b6102cc6107383660046129b4565b61153a565b34801561074957600080fd5b506103206107583660046129b4565b611579565b34801561076957600080fd5b506103207f000000000000000000000000000000000000000000000000000000000000000081565b6102cc61079f366004612afc565b6115f3565b3480156107b057600080fd5b506102cc611996565b3480156107c557600080fd5b506103206107d43660046129b4565b611a40565b3480156107e557600080fd5b506102cc6107f43660046129f6565b611a57565b34801561080557600080fd5b506103206108143660046129b4565b611a7d565b34801561082557600080fd5b506103207f65d7a28e3265b37a6474929f336521b332c1681b933f6cb9f3376673440d862a81565b61088b6040518060400160405280600a81526020017f3030303030303030303000000000000000000000000000000000000000000000815250610f8b565b565b60007fffffffff0000000000000000000000000000000000000000000000000000000082167f5a05180f0000000000000000000000000000000000000000000000000000000014806108e357506108e382611b72565b92915050565b60006109147f0000000000000000000000000000000000000000000000000000000000000000611a7d565b905090565b6000610923611c09565b54919050565b6004816003811061093957600080fd5b6002020154905081565b6000828152600160208190526040909120015461095f81611c29565b6109698383611c33565b505050565b610976611c55565b61097e611cc8565b3360008390036109ef576040517f08c379a000000000000000000000000000000000000000000000000000000000815260206004820152601960248201527f43726f776473616c653a20776569416d6f756e7420697320300000000000000060448201526064015b60405180910390fd5b8151600a14610aa6576040517f08c379a000000000000000000000000000000000000000000000000000000000815260206004820152604160248201527f43726f776473616c653a206261642073706f6e736f724b657920666f726d617460448201527f2c2069742073686f756c6420636f6e7461696e2031302063686172616374657260648201527f7300000000000000000000000000000000000000000000000000000000000000608482015260a4016109e6565b6000610ab184611385565b9050610abb6108e9565b811015610b70576040517f08c379a000000000000000000000000000000000000000000000000000000000815260206004820152604160248201527f43726f776473616c653a2073756263656564206d696e696d756d20616d6f756e60448201527f74206f6620746f6b656e2062757961626c6520666f722074686973207068617360648201527f6500000000000000000000000000000000000000000000000000000000000000608482015260a4016109e6565b6000610b7b83610f1b565b905081811015610c0f57604080517f08c379a00000000000000000000000000000000000000000000000000000000081526020600482015260248101919091527f43726f776473616c653a20657863656564206d6178696d756d20616d6f756e7460448201527f206f6620746f6b656e2062757961626c6520666f72207468697320706861736560648201526084016109e6565b81610c18611c09565b60010160008573ffffffffffffffffffffffffffffffffffffffff1673ffffffffffffffffffffffffffffffffffffffff1681526020019081526020016000206000828254610c679190612be4565b909155505060405133907fb8f2b29e0392452f4f12ce67b78124d6a4f8d446d06f2ed206be80bf11984bee90610ca290889086908990612c65565b60405180910390a2610cb48383611d35565b610d167f000000000000000000000000000000000000000000000000000000000000000073ffffffffffffffffffffffffffffffffffffffff16337f000000000000000000000000000000000000000000000000000000000000000088611de1565b505050610d236001600055565b5050565b73ffffffffffffffffffffffffffffffffffffffff81163314610dcc576040517f08c379a000000000000000000000000000000000000000000000000000000000815260206004820152602f60248201527f416363657373436f6e74726f6c3a2063616e206f6e6c792072656e6f756e636560448201527f20726f6c657320666f722073656c66000000000000000000000000000000000060648201526084016109e6565b610d238282611e7c565b7f65d7a28e3265b37a6474929f336521b332c1681b933f6cb9f3376673440d862a610e0081611c29565b610e08611e9e565b50565b610e08816040518060400160405280600a81526020017f30303030303030303030000000000000000000000000000000000000000000008152506115f3565b600080610e55611f1b565b90506000610e628461133f565b9050817f000000000000000000000000000000000000000000000000000000000000000073ffffffffffffffffffffffffffffffffffffffff1663313ce5676040518163ffffffff1660e01b8152600401602060405180830381865afa158015610ed0573d6000803e3d6000fd5b505050506040513d601f19601f82011682018060405250810190610ef49190612cc1565b610eff90600a612e04565b610f099083612e13565b610f139190612e50565b949350505050565b600080610f26611c09565b73ffffffffffffffffffffffffffffffffffffffff84166000908152600182016020526040902054909150610f7a7f0000000000000000000000000000000000000000000000000000000000000000611a7d565b610f849190612e8b565b9392505050565b610f93611c55565b610f9b611cc8565b34336000829003611008576040517f08c379a000000000000000000000000000000000000000000000000000000000815260206004820152601960248201527f43726f776473616c653a20776569416d6f756e7420697320300000000000000060448201526064016109e6565b8251600a146110bf576040517f08c379a000000000000000000000000000000000000000000000000000000000815260206004820152604160248201527f43726f776473616c653a206261642073706f6e736f724b657920666f726d617460448201527f2c2069742073686f756c6420636f6e7461696e2031302063686172616374657260648201527f7300000000000000000000000000000000000000000000000000000000000000608482015260a4016109e6565b60006110ca83611518565b90506110d46108e9565b811015611189576040517f08c379a000000000000000000000000000000000000000000000000000000000815260206004820152604160248201527f43726f776473616c653a2073756263656564206d696e696d756d20616d6f756e60448201527f74206f6620746f6b656e2062757961626c6520666f722074686973207068617360648201527f6500000000000000000000000000000000000000000000000000000000000000608482015260a4016109e6565b600061119483610f1b565b90508181101561122857604080517f08c379a00000000000000000000000000000000000000000000000000000000081526020600482015260248101919091527f43726f776473616c653a20657863656564206d6178696d756d20616d6f756e7460448201527f206f6620746f6b656e2062757961626c6520666f72207468697320706861736560648201526084016109e6565b81611231611c09565b60010160008573ffffffffffffffffffffffffffffffffffffffff1673ffffffffffffffffffffffffffffffffffffffff16815260200190815260200160002060008282546112809190612be4565b909155505060405133907fb8f2b29e0392452f4f12ce67b78124d6a4f8d446d06f2ed206be80bf11984bee906112bb90879086908a90612e9e565b60405180910390a26112cd8383611d35565b60405173ffffffffffffffffffffffffffffffffffffffff7f0000000000000000000000000000000000000000000000000000000000000000169085156108fc029086906000818181858888f19350505050158015611330573d6000803e3d6000fd5b5050505050610e086001600055565b6000611349610919565b6108e39083612e50565b7f65d7a28e3265b37a6474929f336521b332c1681b933f6cb9f3376673440d862a61137d81611c29565b610e08611f46565b600080611390611fa1565b905060007f000000000000000000000000000000000000000000000000000000000000000073ffffffffffffffffffffffffffffffffffffffff1663313ce5676040518163ffffffff1660e01b8152600401602060405180830381865afa1580156113ff573d6000803e3d6000fd5b505050506040513d601f19601f820116820180604052508101906114239190612cc1565b61142e90600a612e04565b6114388386612e13565b6114429190612e50565b9050610f1381611a7d565b6000828152600260205260408120610f849083611fcc565b600080611470611fa1565b9050600061147d8461133f565b9050817f000000000000000000000000000000000000000000000000000000000000000073ffffffffffffffffffffffffffffffffffffffff1663313ce5676040518163ffffffff1660e01b8152600401602060405180830381865afa158015610ed0573d6000803e3d6000fd5b6000806114f6611fd8565b905060006115038461133f565b905081610f0982670de0b6b3a7640000612e13565b600080611523611fd8565b90506000670de0b6b3a76400006114388386612e13565b610e08816040518060400160405280600a81526020017f303030303030303030300000000000000000000000000000000000000000000081525061096e565b600080611584611f1b565b905060007f000000000000000000000000000000000000000000000000000000000000000073ffffffffffffffffffffffffffffffffffffffff1663313ce5676040518163ffffffff1660e01b8152600401602060405180830381865afa1580156113ff573d6000803e3d6000fd5b6115fb611c55565b611603611cc8565b33600083900361166f576040517f08c379a000000000000000000000000000000000000000000000000000000000815260206004820152601960248201527f43726f776473616c653a20776569416d6f756e7420697320300000000000000060448201526064016109e6565b8151600a14611726576040517f08c379a000000000000000000000000000000000000000000000000000000000815260206004820152604160248201527f43726f776473616c653a206261642073706f6e736f724b657920666f726d617460448201527f2c2069742073686f756c6420636f6e7461696e2031302063686172616374657260648201527f7300000000000000000000000000000000000000000000000000000000000000608482015260a4016109e6565b600061173184611579565b905061173b6108e9565b8110156117f0576040517f08c379a000000000000000000000000000000000000000000000000000000000815260206004820152604160248201527f43726f776473616c653a2073756263656564206d696e696d756d20616d6f756e60448201527f74206f6620746f6b656e2062757961626c6520666f722074686973207068617360648201527f6500000000000000000000000000000000000000000000000000000000000000608482015260a4016109e6565b60006117fb83610f1b565b90508181101561188f57604080517f08c379a00000000000000000000000000000000000000000000000000000000081526020600482015260248101919091527f43726f776473616c653a20657863656564206d6178696d756d20616d6f756e7460448201527f206f6620746f6b656e2062757961626c6520666f72207468697320706861736560648201526084016109e6565b81611898611c09565b60010160008573ffffffffffffffffffffffffffffffffffffffff1673ffffffffffffffffffffffffffffffffffffffff16815260200190815260200160002060008282546118e79190612be4565b909155505060405133907fb8f2b29e0392452f4f12ce67b78124d6a4f8d446d06f2ed206be80bf11984bee9061192290889086908990612ef1565b60405180910390a26119348383611d35565b610d167f000000000000000000000000000000000000000000000000000000000000000073ffffffffffffffffffffffffffffffffffffffff16337f000000000000000000000000000000000000000000000000000000000000000088611de1565b7f1ae041e7f694fa9f3da1ca6a86d5f03d7d3c664f8ddea494dd6b1fac8e8727f46119c081611c29565b6002600a5410611a2c576040517f08c379a000000000000000000000000000000000000000000000000000000000815260206004820181905260248201527f43726f776473616c653a2063616e6e6f7420657863656564207068617365203360448201526064016109e6565b600a54611a3a906001612be4565b600a5550565b60008181526002602052604081206108e390612003565b60008281526001602081905260409091200154611a7381611c29565b6109698383611e7c565b6000611a87610919565b6108e39083612e13565b600082815260016020908152604080832073ffffffffffffffffffffffffffffffffffffffff8516845290915290205460ff16610d2357600082815260016020818152604080842073ffffffffffffffffffffffffffffffffffffffff8616808652925280842080547fffffffffffffffffffffffffffffffffffffffffffffffffffffffffffffff00169093179092559051339285917f2f8788117e7eff1d82e926ec794901d17c78024a50270940304540a733656f0d9190a45050565b6000610f848373ffffffffffffffffffffffffffffffffffffffff841661200d565b60007fffffffff0000000000000000000000000000000000000000000000000000000082167f7965db0b0000000000000000000000000000000000000000000000000000000014806108e357507f01ffc9a7000000000000000000000000000000000000000000000000000000007fffffffff000000000000000000000000000000000000000000000000000000008316146108e3565b60006004600a5460038110611c2057611c20612f44565b60020201905090565b610e08813361205c565b611c3d8282611a91565b60008281526002602052604090206109699082611b50565b600260005403611cc1576040517f08c379a000000000000000000000000000000000000000000000000000000000815260206004820152601f60248201527f5265656e7472616e637947756172643a207265656e7472616e742063616c6c0060448201526064016109e6565b6002600055565b60035460ff161561088b576040517f08c379a000000000000000000000000000000000000000000000000000000000815260206004820152601060248201527f5061757361626c653a207061757365640000000000000000000000000000000060448201526064016109e6565b6040517f2797c6c800000000000000000000000000000000000000000000000000000000815273ffffffffffffffffffffffffffffffffffffffff8381166004830152602482018390527f00000000000000000000000000000000000000000000000000000000000000001690632797c6c890604401600060405180830381600087803b158015611dc557600080fd5b505af1158015611dd9573d6000803e3d6000fd5b505050505050565b6040805173ffffffffffffffffffffffffffffffffffffffff85811660248301528416604482015260648082018490528251808303909101815260849091019091526020810180517bffffffffffffffffffffffffffffffffffffffffffffffffffffffff167f23b872dd00000000000000000000000000000000000000000000000000000000179052611e76908590612116565b50505050565b611e868282612225565b600082815260026020526040902061096990826122e0565b611ea6612302565b600380547fffffffffffffffffffffffffffffffffffffffffffffffffffffffffffffff001690557f5db9ee0a495bf2e6ff9c91a7834c1ba4fdd244a5e8aa4e537bd38aeae4b073aa335b60405173ffffffffffffffffffffffffffffffffffffffff909116815260200160405180910390a1565b60006109147f000000000000000000000000000000000000000000000000000000000000000061236e565b611f4e611cc8565b600380547fffffffffffffffffffffffffffffffffffffffffffffffffffffffffffffff001660011790557f62e78cea01bee320cd4e420270b5ea74000d11b0c9f74754ebdbfc544b05a258611ef13390565b60006109147f000000000000000000000000000000000000000000000000000000000000000061236e565b6000610f8483836123ec565b60006109147f000000000000000000000000000000000000000000000000000000000000000061236e565b60006108e3825490565b6000818152600183016020526040812054612054575081546001818101845560008481526020808220909301849055845484825282860190935260409020919091556108e3565b5060006108e3565b600082815260016020908152604080832073ffffffffffffffffffffffffffffffffffffffff8516845290915290205460ff16610d235761209c81612416565b6120a7836020612435565b6040516020016120b8929190612f73565b604080517fffffffffffffffffffffffffffffffffffffffffffffffffffffffffffffffe0818403018152908290527f08c379a00000000000000000000000000000000000000000000000000000000082526109e691600401612ff4565b6000612178826040518060400160405280602081526020017f5361666545524332303a206c6f772d6c6576656c2063616c6c206661696c65648152508573ffffffffffffffffffffffffffffffffffffffff166126789092919063ffffffff16565b90508051600014806121995750808060200190518101906121999190613007565b610969576040517f08c379a000000000000000000000000000000000000000000000000000000000815260206004820152602a60248201527f5361666545524332303a204552433230206f7065726174696f6e20646964206e60448201527f6f7420737563636565640000000000000000000000000000000000000000000060648201526084016109e6565b600082815260016020908152604080832073ffffffffffffffffffffffffffffffffffffffff8516845290915290205460ff1615610d2357600082815260016020908152604080832073ffffffffffffffffffffffffffffffffffffffff8516808552925280832080547fffffffffffffffffffffffffffffffffffffffffffffffffffffffffffffff0016905551339285917ff6391f5c32d9c69d2a47ea670b442974b53935d1edc7fd64eb21e047a839171b9190a45050565b6000610f848373ffffffffffffffffffffffffffffffffffffffff8416612687565b60035460ff1661088b576040517f08c379a000000000000000000000000000000000000000000000000000000000815260206004820152601460248201527f5061757361626c653a206e6f742070617573656400000000000000000000000060448201526064016109e6565b6000808273ffffffffffffffffffffffffffffffffffffffff1663feaf968c6040518163ffffffff1660e01b815260040160a060405180830381865afa1580156123bc573d6000803e3d6000fd5b505050506040513d601f19601f820116820180604052508101906123e09190613043565b50919695505050505050565b600082600001828154811061240357612403612f44565b9060005260206000200154905092915050565b60606108e373ffffffffffffffffffffffffffffffffffffffff831660145b60606000612444836002612e13565b61244f906002612be4565b67ffffffffffffffff81111561246757612467612a22565b6040519080825280601f01601f191660200182016040528015612491576020820181803683370190505b5090507f3000000000000000000000000000000000000000000000000000000000000000816000815181106124c8576124c8612f44565b60200101907effffffffffffffffffffffffffffffffffffffffffffffffffffffffffffff1916908160001a9053507f78000000000000000000000000000000000000000000000000000000000000008160018151811061252b5761252b612f44565b60200101907effffffffffffffffffffffffffffffffffffffffffffffffffffffffffffff1916908160001a9053506000612567846002612e13565b612572906001612be4565b90505b600181111561260f577f303132333435363738396162636465660000000000000000000000000000000085600f16601081106125b3576125b3612f44565b1a60f81b8282815181106125c9576125c9612f44565b60200101907effffffffffffffffffffffffffffffffffffffffffffffffffffffffffffff1916908160001a90535060049490941c9361260881613093565b9050612575565b508315610f84576040517f08c379a000000000000000000000000000000000000000000000000000000000815260206004820181905260248201527f537472696e67733a20686578206c656e67746820696e73756666696369656e7460448201526064016109e6565b6060610f13848460008561277a565b600081815260018301602052604081205480156127705760006126ab600183612e8b565b85549091506000906126bf90600190612e8b565b90508181146127245760008660000182815481106126df576126df612f44565b906000526020600020015490508087600001848154811061270257612702612f44565b6000918252602080832090910192909255918252600188019052604090208390555b8554869080612735576127356130c8565b6001900381819060005260206000200160009055905585600101600086815260200190815260200160002060009055600193505050506108e3565b60009150506108e3565b60608247101561280c576040517f08c379a000000000000000000000000000000000000000000000000000000000815260206004820152602660248201527f416464726573733a20696e73756666696369656e742062616c616e636520666f60448201527f722063616c6c000000000000000000000000000000000000000000000000000060648201526084016109e6565b6000808673ffffffffffffffffffffffffffffffffffffffff16858760405161283591906130f7565b60006040518083038185875af1925050503d8060008114612872576040519150601f19603f3d011682016040523d82523d6000602084013e612877565b606091505b509150915061288887838387612893565b979650505050505050565b606083156129295782516000036129225773ffffffffffffffffffffffffffffffffffffffff85163b612922576040517f08c379a000000000000000000000000000000000000000000000000000000000815260206004820152601d60248201527f416464726573733a2063616c6c20746f206e6f6e2d636f6e747261637400000060448201526064016109e6565b5081610f13565b610f13838381511561293e5781518083602001fd5b806040517f08c379a00000000000000000000000000000000000000000000000000000000081526004016109e69190612ff4565b60006020828403121561298457600080fd5b81357fffffffff0000000000000000000000000000000000000000000000000000000081168114610f8457600080fd5b6000602082840312156129c657600080fd5b5035919050565b803573ffffffffffffffffffffffffffffffffffffffff811681146129f157600080fd5b919050565b60008060408385031215612a0957600080fd5b82359150612a19602084016129cd565b90509250929050565b7f4e487b7100000000000000000000000000000000000000000000000000000000600052604160045260246000fd5b600082601f830112612a6257600080fd5b813567ffffffffffffffff80821115612a7d57612a7d612a22565b604051601f83017fffffffffffffffffffffffffffffffffffffffffffffffffffffffffffffffe0908116603f01168101908282118183101715612ac357612ac3612a22565b81604052838152866020858801011115612adc57600080fd5b836020870160208301376000602085830101528094505050505092915050565b60008060408385031215612b0f57600080fd5b82359150602083013567ffffffffffffffff811115612b2d57600080fd5b612b3985828601612a51565b9150509250929050565b600060208284031215612b5557600080fd5b610f84826129cd565b600060208284031215612b7057600080fd5b813567ffffffffffffffff811115612b8757600080fd5b610f1384828501612a51565b60008060408385031215612ba657600080fd5b50508035926020909101359150565b7f4e487b7100000000000000000000000000000000000000000000000000000000600052601160045260246000fd5b808201808211156108e3576108e3612bb5565b60005b83811015612c12578181015183820152602001612bfa565b50506000910152565b60008151808452612c33816020860160208601612bf7565b601f017fffffffffffffffffffffffffffffffffffffffffffffffffffffffffffffffe0169290920160200192915050565b83815282602082015260806040820152600360808201527f415242000000000000000000000000000000000000000000000000000000000060a082015260c060608201526000612cb860c0830184612c1b565b95945050505050565b600060208284031215612cd357600080fd5b815160ff81168114610f8457600080fd5b600181815b80851115612d3d57817fffffffffffffffffffffffffffffffffffffffffffffffffffffffffffffffff04821115612d2357612d23612bb5565b80851615612d3057918102915b93841c9390800290612ce9565b509250929050565b600082612d54575060016108e3565b81612d61575060006108e3565b8160018114612d775760028114612d8157612d9d565b60019150506108e3565b60ff841115612d9257612d92612bb5565b50506001821b6108e3565b5060208310610133831016604e8410600b8410161715612dc0575081810a6108e3565b612dca8383612ce4565b807fffffffffffffffffffffffffffffffffffffffffffffffffffffffffffffffff04821115612dfc57612dfc612bb5565b029392505050565b6000610f8460ff841683612d45565b6000817fffffffffffffffffffffffffffffffffffffffffffffffffffffffffffffffff0483118215151615612e4b57612e4b612bb5565b500290565b600082612e86577f4e487b7100000000000000000000000000000000000000000000000000000000600052601260045260246000fd5b500490565b818103818111156108e3576108e3612bb5565b83815282602082015260806040820152600360808201527f455448000000000000000000000000000000000000000000000000000000000060a082015260c060608201526000612cb860c0830184612c1b565b83815282602082015260806040820152600460808201527f555344540000000000000000000000000000000000000000000000000000000060a082015260c060608201526000612cb860c0830184612c1b565b7f4e487b7100000000000000000000000000000000000000000000000000000000600052603260045260246000fd5b7f416363657373436f6e74726f6c3a206163636f756e7420000000000000000000815260008351612fab816017850160208801612bf7565b7f206973206d697373696e6720726f6c65200000000000000000000000000000006017918401918201528351612fe8816028840160208801612bf7565b01602801949350505050565b602081526000610f846020830184612c1b565b60006020828403121561301957600080fd5b81518015158114610f8457600080fd5b805169ffffffffffffffffffff811681146129f157600080fd5b600080600080600060a0868803121561305b57600080fd5b61306486613029565b945060208601519350604086015192506060860151915061308760808701613029565b90509295509295909350565b6000816130a2576130a2612bb5565b507fffffffffffffffffffffffffffffffffffffffffffffffffffffffffffffffff0190565b7f4e487b7100000000000000000000000000000000000000000000000000000000600052603160045260246000fd5b60008251613109818460208701612bf7565b919091019291505056fea164736f6c6343000810000a",
  "devdoc": {
    "events": {
      "TokenPurchased(address,uint256,uint256,string,string)": {
        "params": {
          "amount": "amount of tokens purchased",
          "currency": "currency used to process purchase",
          "purchaser": "who paid for the tokens",
          "sponsorKey": "sponsor key (grant advantages on orivium nfts)",
          "value": "weis paid for purchase"
        }
      }
    },
    "kind": "dev",
    "methods": {
      "getRoleAdmin(bytes32)": {
        "details": "Returns the admin role that controls `role`. See {grantRole} and {revokeRole}. To change a role's admin, use {_setRoleAdmin}."
      },
      "getRoleMember(bytes32,uint256)": {
        "details": "Returns one of the accounts that have `role`. `index` must be a value between 0 and {getRoleMemberCount}, non-inclusive. Role bearers are not sorted in any particular way, and their ordering may change at any point. WARNING: When using {getRoleMember} and {getRoleMemberCount}, make sure you perform all queries on the same block. See the following https://forum.openzeppelin.com/t/iterating-over-elements-on-enumerableset-in-openzeppelin-contracts/2296[forum post] for more information."
      },
      "getRoleMemberCount(bytes32)": {
        "details": "Returns the number of accounts that have `role`. Can be used together with {getRoleMember} to enumerate all bearers of a role."
      },
      "grantRole(bytes32,address)": {
        "details": "Grants `role` to `account`. If `account` had not been already granted `role`, emits a {RoleGranted} event. Requirements: - the caller must have ``role``'s admin role. May emit a {RoleGranted} event."
      },
      "hasRole(bytes32,address)": {
        "details": "Returns `true` if `account` has been granted `role`."
      },
      "paused()": {
        "details": "Returns true if the contract is paused, and false otherwise."
      },
      "renounceRole(bytes32,address)": {
        "details": "Revokes `role` from the calling account. Roles are often managed via {grantRole} and {revokeRole}: this function's purpose is to provide a mechanism for accounts to lose their privileges if they are compromised (such as when a trusted device is misplaced). If the calling account had been revoked `role`, emits a {RoleRevoked} event. Requirements: - the caller must be `account`. May emit a {RoleRevoked} event."
      },
      "revokeRole(bytes32,address)": {
        "details": "Revokes `role` from `account`. If `account` had been granted `role`, emits a {RoleRevoked} event. Requirements: - the caller must have ``role``'s admin role. May emit a {RoleRevoked} event."
      },
      "supportsInterface(bytes4)": {
        "details": "See {IERC165-supportsInterface}."
      }
    },
    "title": "Orivium Token Crowdsale",
    "version": 1
  },
  "userdoc": {
    "events": {
      "TokenPurchased(address,uint256,uint256,string,string)": {
        "notice": "Event for token purchase logging"
      }
    },
    "kind": "user",
    "methods": {
      "CROWDSALE_ADMIN_ROLE()": {
        "notice": "Role CROWDSALE_ADMIN_ROLE allows to step into next phase"
      },
      "PAUSER_ROLE()": {
        "notice": "Role PAUSER_ROLE allows to pause and unpause crowdsale"
      },
      "arb()": {
        "notice": "arb token address"
      },
      "buyTokens(string)": {
        "notice": "buy orivium token with ETHThis function has a non-reentrancy guard, so it shouldn't be called by \t\tanother `nonReentrant` function."
      },
      "buyTokensWithARB(uint256,string)": {
        "notice": "buy orivium token with ARBThis function has a non-reentrancy guard, so it shouldn't be called by \t\tanother `nonReentrant` function."
      },
      "buyTokensWithUSDT(uint256,string)": {
        "notice": "buy orivium token with USDTThis function has a non-reentrancy guard, so it shouldn't be called by \t\tanother `nonReentrant` function."
      },
      "fundsCollector()": {
        "notice": "funds collector wallet address"
      },
      "getARBPriceFor(uint256)": {
        "notice": "get ETH price for given wei amount in ARB"
      },
      "getBuyableAmount(address)": {
        "notice": "get remaining buyable amount for given addres on current phase"
      },
      "getETHPriceFor(uint256)": {
        "notice": "get ETH price for given wei amount in ORI"
      },
      "getMinimumBuyableAmount()": {
        "notice": "get minimal amount to buy"
      },
      "getORIAmountForARB(uint256)": {
        "notice": "get ORI amount for given ARB wei amount"
      },
      "getORIAmountForETH(uint256)": {
        "notice": "get ORI amount for given ETH wei amount"
      },
      "getORIAmountForUSD(uint256)": {
        "notice": "get ORI amount for given USD wei amount"
      },
      "getORIAmountForUSDT(uint256)": {
        "notice": "get ORI amount for given USDT wei amount"
      },
      "getUSDPriceFor(uint256)": {
        "notice": "get ETH price for given wei amount in USD"
      },
      "getUSDTPriceFor(uint256)": {
        "notice": "get ETH price for given wei amount in USDT"
      },
      "maxBuyableAmount()": {
        "notice": "maximum buyable amount by wallet by phase"
      },
      "minBuyableAmount()": {
        "notice": "minimum buyable amount by wallet by phase"
      },
      "pause()": {
        "notice": "pause crowdsale"
      },
      "phaseIndex()": {
        "notice": "Index of the current phase"
      },
      "phases(uint256)": {
        "notice": "array containing information about crowdsale phases"
      },
      "rate()": {
        "notice": "get current USD/ORI conversion rate"
      },
      "unpause()": {
        "notice": "unpause crowdsale"
      },
      "updateRate()": {
        "notice": "step into next phase"
      },
      "usdt()": {
        "notice": "usdt token address"
      },
      "vesting()": {
        "notice": "orivium token vesting contract address"
      }
    },
    "version": 1
  },
  "storageLayout": {
    "storage": [
      {
        "astId": 966,
        "contract": "contracts/sales/CrowdsaleL2.sol:CrowdsaleL2",
        "label": "_status",
        "offset": 0,
        "slot": "0",
        "type": "t_uint256"
      },
      {
        "astId": 333,
        "contract": "contracts/sales/CrowdsaleL2.sol:CrowdsaleL2",
        "label": "_roles",
        "offset": 0,
        "slot": "1",
        "type": "t_mapping(t_bytes32,t_struct(RoleData)328_storage)"
      },
      {
        "astId": 643,
        "contract": "contracts/sales/CrowdsaleL2.sol:CrowdsaleL2",
        "label": "_roleMembers",
        "offset": 0,
        "slot": "2",
        "type": "t_mapping(t_bytes32,t_struct(AddressSet)5674_storage)"
      },
      {
        "astId": 865,
        "contract": "contracts/sales/CrowdsaleL2.sol:CrowdsaleL2",
        "label": "_paused",
        "offset": 0,
        "slot": "3",
        "type": "t_bool"
      },
      {
        "astId": 6821,
        "contract": "contracts/sales/CrowdsaleL2.sol:CrowdsaleL2",
        "label": "phases",
        "offset": 0,
        "slot": "4",
        "type": "t_array(t_struct(Phase)6815_storage)3_storage"
      },
      {
        "astId": 6824,
        "contract": "contracts/sales/CrowdsaleL2.sol:CrowdsaleL2",
        "label": "phaseIndex",
        "offset": 0,
        "slot": "10",
        "type": "t_uint256"
      }
    ],
    "types": {
      "t_address": {
        "encoding": "inplace",
        "label": "address",
        "numberOfBytes": "20"
      },
      "t_array(t_bytes32)dyn_storage": {
        "base": "t_bytes32",
        "encoding": "dynamic_array",
        "label": "bytes32[]",
        "numberOfBytes": "32"
      },
      "t_array(t_struct(Phase)6815_storage)3_storage": {
        "base": "t_struct(Phase)6815_storage",
        "encoding": "inplace",
        "label": "struct CrowdsaleL2.Phase[3]",
        "numberOfBytes": "192"
      },
      "t_bool": {
        "encoding": "inplace",
        "label": "bool",
        "numberOfBytes": "1"
      },
      "t_bytes32": {
        "encoding": "inplace",
        "label": "bytes32",
        "numberOfBytes": "32"
      },
      "t_mapping(t_address,t_bool)": {
        "encoding": "mapping",
        "key": "t_address",
        "label": "mapping(address => bool)",
        "numberOfBytes": "32",
        "value": "t_bool"
      },
      "t_mapping(t_address,t_uint256)": {
        "encoding": "mapping",
        "key": "t_address",
        "label": "mapping(address => uint256)",
        "numberOfBytes": "32",
        "value": "t_uint256"
      },
      "t_mapping(t_bytes32,t_struct(AddressSet)5674_storage)": {
        "encoding": "mapping",
        "key": "t_bytes32",
        "label": "mapping(bytes32 => struct EnumerableSet.AddressSet)",
        "numberOfBytes": "32",
        "value": "t_struct(AddressSet)5674_storage"
      },
      "t_mapping(t_bytes32,t_struct(RoleData)328_storage)": {
        "encoding": "mapping",
        "key": "t_bytes32",
        "label": "mapping(bytes32 => struct AccessControl.RoleData)",
        "numberOfBytes": "32",
        "value": "t_struct(RoleData)328_storage"
      },
      "t_mapping(t_bytes32,t_uint256)": {
        "encoding": "mapping",
        "key": "t_bytes32",
        "label": "mapping(bytes32 => uint256)",
        "numberOfBytes": "32",
        "value": "t_uint256"
      },
      "t_struct(AddressSet)5674_storage": {
        "encoding": "inplace",
        "label": "struct EnumerableSet.AddressSet",
        "members": [
          {
            "astId": 5673,
            "contract": "contracts/sales/CrowdsaleL2.sol:CrowdsaleL2",
            "label": "_inner",
            "offset": 0,
            "slot": "0",
            "type": "t_struct(Set)5359_storage"
          }
        ],
        "numberOfBytes": "64"
      },
      "t_struct(Phase)6815_storage": {
        "encoding": "inplace",
        "label": "struct CrowdsaleL2.Phase",
        "members": [
          {
            "astId": 6809,
            "contract": "contracts/sales/CrowdsaleL2.sol:CrowdsaleL2",
            "label": "rate",
            "offset": 0,
            "slot": "0",
            "type": "t_uint256"
          },
          {
            "astId": 6814,
            "contract": "contracts/sales/CrowdsaleL2.sol:CrowdsaleL2",
            "label": "boughtAmounts",
            "offset": 0,
            "slot": "1",
            "type": "t_mapping(t_address,t_uint256)"
          }
        ],
        "numberOfBytes": "64"
      },
      "t_struct(RoleData)328_storage": {
        "encoding": "inplace",
        "label": "struct AccessControl.RoleData",
        "members": [
          {
            "astId": 325,
            "contract": "contracts/sales/CrowdsaleL2.sol:CrowdsaleL2",
            "label": "members",
            "offset": 0,
            "slot": "0",
            "type": "t_mapping(t_address,t_bool)"
          },
          {
            "astId": 327,
            "contract": "contracts/sales/CrowdsaleL2.sol:CrowdsaleL2",
            "label": "adminRole",
            "offset": 0,
            "slot": "1",
            "type": "t_bytes32"
          }
        ],
        "numberOfBytes": "64"
      },
      "t_struct(Set)5359_storage": {
        "encoding": "inplace",
        "label": "struct EnumerableSet.Set",
        "members": [
          {
            "astId": 5354,
            "contract": "contracts/sales/CrowdsaleL2.sol:CrowdsaleL2",
            "label": "_values",
            "offset": 0,
            "slot": "0",
            "type": "t_array(t_bytes32)dyn_storage"
          },
          {
            "astId": 5358,
            "contract": "contracts/sales/CrowdsaleL2.sol:CrowdsaleL2",
            "label": "_indexes",
            "offset": 0,
            "slot": "1",
            "type": "t_mapping(t_bytes32,t_uint256)"
          }
        ],
        "numberOfBytes": "64"
      },
      "t_uint256": {
        "encoding": "inplace",
        "label": "uint256",
        "numberOfBytes": "32"
      }
    }
  }
}