{
  "address": "0xf7E5CB07f124fCfAF76361DAAe01c954e9b7aCcE",
  "abi": [
    {
      "inputs": [],
      "stateMutability": "nonpayable",
      "type": "constructor"
    },
    {
      "anonymous": false,
      "inputs": [
        {
          "indexed": true,
          "internalType": "bytes32",
          "name": "role",
          "type": "bytes32"
        },
        {
          "indexed": true,
          "internalType": "bytes32",
          "name": "previousAdminRole",
          "type": "bytes32"
        },
        {
          "indexed": true,
          "internalType": "bytes32",
          "name": "newAdminRole",
          "type": "bytes32"
        }
      ],
      "name": "RoleAdminChanged",
      "type": "event"
    },
    {
      "anonymous": false,
      "inputs": [
        {
          "indexed": true,
          "internalType": "bytes32",
          "name": "role",
          "type": "bytes32"
        },
        {
          "indexed": true,
          "internalType": "address",
          "name": "account",
          "type": "address"
        },
        {
          "indexed": true,
          "internalType": "address",
          "name": "sender",
          "type": "address"
        }
      ],
      "name": "RoleGranted",
      "type": "event"
    },
    {
      "anonymous": false,
      "inputs": [
        {
          "indexed": true,
          "internalType": "bytes32",
          "name": "role",
          "type": "bytes32"
        },
        {
          "indexed": true,
          "internalType": "address",
          "name": "account",
          "type": "address"
        },
        {
          "indexed": true,
          "internalType": "address",
          "name": "sender",
          "type": "address"
        }
      ],
      "name": "RoleRevoked",
      "type": "event"
    },
    {
      "anonymous": false,
      "inputs": [
        {
          "indexed": true,
          "internalType": "address",
          "name": "beneficiary",
          "type": "address"
        },
        {
          "indexed": false,
          "internalType": "uint256",
          "name": "amount",
          "type": "uint256"
        }
      ],
      "name": "TokenReleased",
      "type": "event"
    },
    {
      "inputs": [],
      "name": "CLIFFING_PERCENT",
      "outputs": [
        {
          "internalType": "uint256",
          "name": "",
          "type": "uint256"
        }
      ],
      "stateMutability": "view",
      "type": "function"
    },
    {
      "inputs": [],
      "name": "DEFAULT_ADMIN_ROLE",
      "outputs": [
        {
          "internalType": "bytes32",
          "name": "",
          "type": "bytes32"
        }
      ],
      "stateMutability": "view",
      "type": "function"
    },
    {
      "inputs": [],
      "name": "VESTING_ADMIN_ROLE",
      "outputs": [
        {
          "internalType": "bytes32",
          "name": "",
          "type": "bytes32"
        }
      ],
      "stateMutability": "view",
      "type": "function"
    },
    {
      "inputs": [],
      "name": "VESTING_DURATION",
      "outputs": [
        {
          "internalType": "uint256",
          "name": "",
          "type": "uint256"
        }
      ],
      "stateMutability": "view",
      "type": "function"
    },
    {
      "inputs": [],
      "name": "VESTING_ROLE",
      "outputs": [
        {
          "internalType": "bytes32",
          "name": "",
          "type": "bytes32"
        }
      ],
      "stateMutability": "view",
      "type": "function"
    },
    {
      "inputs": [
        {
          "internalType": "address",
          "name": "_beneficiary",
          "type": "address"
        },
        {
          "internalType": "uint128",
          "name": "_amountToDecrease",
          "type": "uint128"
        }
      ],
      "name": "decreaseAmount",
      "outputs": [],
      "stateMutability": "nonpayable",
      "type": "function"
    },
    {
      "inputs": [
        {
          "internalType": "address",
          "name": "_beneficiary",
          "type": "address"
        }
      ],
      "name": "getAccount",
      "outputs": [
        {
          "components": [
            {
              "internalType": "uint128",
              "name": "amount",
              "type": "uint128"
            },
            {
              "internalType": "uint128",
              "name": "released",
              "type": "uint128"
            }
          ],
          "internalType": "struct Vesting.VestingAccount",
          "name": "",
          "type": "tuple"
        }
      ],
      "stateMutability": "view",
      "type": "function"
    },
    {
      "inputs": [
        {
          "internalType": "address",
          "name": "_beneficiary",
          "type": "address"
        }
      ],
      "name": "getReleasableAmount",
      "outputs": [
        {
          "internalType": "uint256",
          "name": "",
          "type": "uint256"
        }
      ],
      "stateMutability": "view",
      "type": "function"
    },
    {
      "inputs": [
        {
          "internalType": "bytes32",
          "name": "role",
          "type": "bytes32"
        }
      ],
      "name": "getRoleAdmin",
      "outputs": [
        {
          "internalType": "bytes32",
          "name": "",
          "type": "bytes32"
        }
      ],
      "stateMutability": "view",
      "type": "function"
    },
    {
      "inputs": [
        {
          "internalType": "bytes32",
          "name": "role",
          "type": "bytes32"
        },
        {
          "internalType": "uint256",
          "name": "index",
          "type": "uint256"
        }
      ],
      "name": "getRoleMember",
      "outputs": [
        {
          "internalType": "address",
          "name": "",
          "type": "address"
        }
      ],
      "stateMutability": "view",
      "type": "function"
    },
    {
      "inputs": [
        {
          "internalType": "bytes32",
          "name": "role",
          "type": "bytes32"
        }
      ],
      "name": "getRoleMemberCount",
      "outputs": [
        {
          "internalType": "uint256",
          "name": "",
          "type": "uint256"
        }
      ],
      "stateMutability": "view",
      "type": "function"
    },
    {
      "inputs": [
        {
          "internalType": "bytes32",
          "name": "role",
          "type": "bytes32"
        },
        {
          "internalType": "address",
          "name": "account",
          "type": "address"
        }
      ],
      "name": "grantRole",
      "outputs": [],
      "stateMutability": "nonpayable",
      "type": "function"
    },
    {
      "inputs": [
        {
          "internalType": "bytes32",
          "name": "role",
          "type": "bytes32"
        },
        {
          "internalType": "address",
          "name": "account",
          "type": "address"
        }
      ],
      "name": "hasRole",
      "outputs": [
        {
          "internalType": "bool",
          "name": "",
          "type": "bool"
        }
      ],
      "stateMutability": "view",
      "type": "function"
    },
    {
      "inputs": [],
      "name": "oriTokenAddress",
      "outputs": [
        {
          "internalType": "address",
          "name": "",
          "type": "address"
        }
      ],
      "stateMutability": "view",
      "type": "function"
    },
    {
      "inputs": [
        {
          "internalType": "address",
          "name": "_beneficiary",
          "type": "address"
        }
      ],
      "name": "release",
      "outputs": [],
      "stateMutability": "nonpayable",
      "type": "function"
    },
    {
      "inputs": [
        {
          "internalType": "bytes32",
          "name": "role",
          "type": "bytes32"
        },
        {
          "internalType": "address",
          "name": "account",
          "type": "address"
        }
      ],
      "name": "renounceRole",
      "outputs": [],
      "stateMutability": "nonpayable",
      "type": "function"
    },
    {
      "inputs": [
        {
          "internalType": "bytes32",
          "name": "role",
          "type": "bytes32"
        },
        {
          "internalType": "address",
          "name": "account",
          "type": "address"
        }
      ],
      "name": "revokeRole",
      "outputs": [],
      "stateMutability": "nonpayable",
      "type": "function"
    },
    {
      "inputs": [
        {
          "internalType": "address",
          "name": "_oriTokenAddress",
          "type": "address"
        }
      ],
      "name": "setOriTokenAddress",
      "outputs": [],
      "stateMutability": "nonpayable",
      "type": "function"
    },
    {
      "inputs": [
        {
          "internalType": "uint256",
          "name": "_vestingStart",
          "type": "uint256"
        }
      ],
      "name": "setVestingStart",
      "outputs": [],
      "stateMutability": "nonpayable",
      "type": "function"
    },
    {
      "inputs": [
        {
          "internalType": "bytes4",
          "name": "interfaceId",
          "type": "bytes4"
        }
      ],
      "name": "supportsInterface",
      "outputs": [
        {
          "internalType": "bool",
          "name": "",
          "type": "bool"
        }
      ],
      "stateMutability": "view",
      "type": "function"
    },
    {
      "inputs": [
        {
          "internalType": "address",
          "name": "_beneficiary",
          "type": "address"
        },
        {
          "internalType": "uint256",
          "name": "_tokenAmount",
          "type": "uint256"
        }
      ],
      "name": "vest",
      "outputs": [],
      "stateMutability": "nonpayable",
      "type": "function"
    },
    {
      "inputs": [],
      "name": "vestingStart",
      "outputs": [
        {
          "internalType": "uint256",
          "name": "",
          "type": "uint256"
        }
      ],
      "stateMutability": "view",
      "type": "function"
    }
  ],
  "transactionHash": "0x910976a15bebcaf4a20651d0dae55e09a0af2da19d974c777d309d49f772a64c",
  "args": [],
  "numDeployments": 1,
  "solcInputHash": "1dd4cf646caeba09b7d208d4269dcb69",
  "bytecode": "0x6080604052636591f270600355600480546001600160a01b03191690553480156200002957600080fd5b5060016002556200003c60003362000042565b62000198565b6200005982826200008560201b62000c0b1760201c565b60008281526001602090815260409091206200008091839062000cfb62000126821b17901c565b505050565b6000828152602081815260408083206001600160a01b038516845290915290205460ff1662000122576000828152602081815260408083206001600160a01b03851684529091529020805460ff19166001179055620000e13390565b6001600160a01b0316816001600160a01b0316837f2f8788117e7eff1d82e926ec794901d17c78024a50270940304540a733656f0d60405160405180910390a45b5050565b60006200013d836001600160a01b03841662000146565b90505b92915050565b60008181526001830160205260408120546200018f5750815460018181018455600084815260208082209093018490558454848252828601909352604090209190915562000140565b50600062000140565b611d0480620001a86000396000f3fe608060405234801561001057600080fd5b50600436106101825760003560e01c80637c8a3a8d116100d8578063a217fddf1161008c578063ca15c87311610066578063ca15c87314610388578063d547741f1461039b578063fbcbc0f1146103ae57600080fd5b8063a217fddf14610365578063a73efb141461036d578063c6a62ac31461037557600080fd5b806391d14854116100bd57806391d14854146102e75780639dac74a21461032b578063a1c1418c1461033e57600080fd5b80637c8a3a8d146102ad5780639010d07c146102d457600080fd5b80632797c6c81161013a57806336568abe1161011457806336568abe1461024a5780634cfc4d301461025d5780635d65d21d1461026857600080fd5b80632797c6c8146102115780632afd1a7d146102245780632f2ff15d1461023757600080fd5b8063191655871161016b57806319165587146101c4578063248a9ca3146101d7578063254800d41461020857600080fd5b806301ffc9a714610187578063126f854d146101af575b600080fd5b61019a61019536600461187f565b610465565b60405190151581526020015b60405180910390f35b6101c26101bd3660046118c1565b6104c1565b005b6101c26101d2366004611903565b6104f1565b6101fa6101e53660046118c1565b60009081526020819052604090206001015490565b6040519081526020016101a6565b6101fa60035481565b6101c261021f36600461191e565b61076a565b6101fa610232366004611903565b610816565b6101c2610245366004611948565b61088a565b6101c2610258366004611948565b6108b4565b6101fa63019f488081565b6004546102889073ffffffffffffffffffffffffffffffffffffffff1681565b60405173ffffffffffffffffffffffffffffffffffffffff90911681526020016101a6565b6101fa7fa8f45af456ec169d21f52f0673e869f84c82a5ecdb557cd556f1159a748bfb0681565b6102886102e2366004611974565b610967565b61019a6102f5366004611948565b60009182526020828152604080842073ffffffffffffffffffffffffffffffffffffffff93909316845291905290205460ff1690565b6101c2610339366004611996565b61097f565b6101fa7f6343452265350cc926492d9bfc7710ca06328d7c328cdb091fde925c1441e7a881565b6101fa600081565b6101fa600a81565b6101c2610383366004611903565b610aba565b6101fa6103963660046118c1565b610bcf565b6101c26103a9366004611948565b610be6565b6104356103bc366004611903565b60408051808201909152600080825260208201525073ffffffffffffffffffffffffffffffffffffffff166000908152600560209081526040918290208251808401909352546fffffffffffffffffffffffffffffffff8082168452700100000000000000000000000000000000909104169082015290565b6040805182516fffffffffffffffffffffffffffffffff90811682526020938401511692810192909252016101a6565b60007fffffffff0000000000000000000000000000000000000000000000000000000082167f5a05180f0000000000000000000000000000000000000000000000000000000014806104bb57506104bb82610d1d565b92915050565b7fa8f45af456ec169d21f52f0673e869f84c82a5ecdb557cd556f1159a748bfb066104eb81610db4565b50600355565b6104f9610dbe565b73ffffffffffffffffffffffffffffffffffffffff81166105a0576040517f08c379a0000000000000000000000000000000000000000000000000000000008152602060048201526024808201527f56657374696e673a2062656e6566696369617279206973207a65726f2061646460448201527f726573730000000000000000000000000000000000000000000000000000000060648201526084015b60405180910390fd5b60045473ffffffffffffffffffffffffffffffffffffffff1660006105c483610816565b905060008111610656576040517f08c379a000000000000000000000000000000000000000000000000000000000815260206004820152602160248201527f56657374696e673a2072656c656173626c6520616d6f756e74206973206e756c60448201527f6c000000000000000000000000000000000000000000000000000000000000006064820152608401610597565b73ffffffffffffffffffffffffffffffffffffffff8316600090815260056020526040902080548291906010906106b490849070010000000000000000000000000000000090046fffffffffffffffffffffffffffffffff16611a11565b92506101000a8154816fffffffffffffffffffffffffffffffff02191690836fffffffffffffffffffffffffffffffff1602179055508273ffffffffffffffffffffffffffffffffffffffff167f9cf9e3ab58b33f06d81842ea0ad850b6640c6430d6396973312e1715792e7a918260405161073291815260200190565b60405180910390a261075b73ffffffffffffffffffffffffffffffffffffffff83168483610e2f565b50506107676001600255565b50565b7f6343452265350cc926492d9bfc7710ca06328d7c328cdb091fde925c1441e7a861079481610db4565b73ffffffffffffffffffffffffffffffffffffffff8316600090815260056020526040812080548492906107db9084906fffffffffffffffffffffffffffffffff16611a11565b92506101000a8154816fffffffffffffffffffffffffffffffff02191690836fffffffffffffffffffffffffffffffff160217905550505050565b73ffffffffffffffffffffffffffffffffffffffff811660009081526005602090815260408083208151808301909252546fffffffffffffffffffffffffffffffff8082168352700100000000000000000000000000000000909104169181019190915261088381610ebc565b9392505050565b6000828152602081905260409020600101546108a581610db4565b6108af8383610f55565b505050565b73ffffffffffffffffffffffffffffffffffffffff81163314610959576040517f08c379a000000000000000000000000000000000000000000000000000000000815260206004820152602f60248201527f416363657373436f6e74726f6c3a2063616e206f6e6c792072656e6f756e636560448201527f20726f6c657320666f722073656c6600000000000000000000000000000000006064820152608401610597565b6109638282610f77565b5050565b60008281526001602052604081206108839083610f99565b7f6343452265350cc926492d9bfc7710ca06328d7c328cdb091fde925c1441e7a86109a981610db4565b73ffffffffffffffffffffffffffffffffffffffff83166000908152600560205260409020546fffffffffffffffffffffffffffffffff80841691161015610a73576040517f08c379a000000000000000000000000000000000000000000000000000000000815260206004820152603a60248201527f56657374696e673a20616d6f756e7420746f206465637265617365206973206760448201527f726561746572207468616e206163636f756e7420616d6f756e740000000000006064820152608401610597565b73ffffffffffffffffffffffffffffffffffffffff8316600090815260056020526040812080548492906107db9084906fffffffffffffffffffffffffffffffff16611a3a565b7fa8f45af456ec169d21f52f0673e869f84c82a5ecdb557cd556f1159a748bfb06610ae481610db4565b73ffffffffffffffffffffffffffffffffffffffff8216610b87576040517f08c379a000000000000000000000000000000000000000000000000000000000815260206004820152603760248201527f43726f776473616c653a2063616e6e6f7420736574206f726920746f6b656e2060448201527f6164647265737320746f207a65726f20616464726573730000000000000000006064820152608401610597565b50600480547fffffffffffffffffffffffff00000000000000000000000000000000000000001673ffffffffffffffffffffffffffffffffffffffff92909216919091179055565b60008181526001602052604081206104bb90610fa5565b600082815260208190526040902060010154610c0181610db4565b6108af8383610f77565b60008281526020818152604080832073ffffffffffffffffffffffffffffffffffffffff8516845290915290205460ff166109635760008281526020818152604080832073ffffffffffffffffffffffffffffffffffffffff85168452909152902080547fffffffffffffffffffffffffffffffffffffffffffffffffffffffffffffff00166001179055610c9d3390565b73ffffffffffffffffffffffffffffffffffffffff168173ffffffffffffffffffffffffffffffffffffffff16837f2f8788117e7eff1d82e926ec794901d17c78024a50270940304540a733656f0d60405160405180910390a45050565b60006108838373ffffffffffffffffffffffffffffffffffffffff8416610faf565b60007fffffffff0000000000000000000000000000000000000000000000000000000082167f7965db0b0000000000000000000000000000000000000000000000000000000014806104bb57507f01ffc9a7000000000000000000000000000000000000000000000000000000007fffffffff000000000000000000000000000000000000000000000000000000008316146104bb565b6107678133610ffe565b6002805403610e29576040517f08c379a000000000000000000000000000000000000000000000000000000000815260206004820152601f60248201527f5265656e7472616e637947756172643a207265656e7472616e742063616c6c006044820152606401610597565b60028055565b6040805173ffffffffffffffffffffffffffffffffffffffff8416602482015260448082018490528251808303909101815260649091019091526020810180517bffffffffffffffffffffffffffffffffffffffffffffffffffffffff167fa9059cbb000000000000000000000000000000000000000000000000000000001790526108af9084906110b6565b6000600354421015610ed057506000919050565b6000610ef183600001516fffffffffffffffffffffffffffffffff166111c5565b90506000610f1f8285600001516fffffffffffffffffffffffffffffffff16610f1a9190611a63565b6111de565b60208501519091506fffffffffffffffffffffffffffffffff16610f438284611a76565b610f4d9190611a63565b949350505050565b610f5f8282610c0b565b60008281526001602052604090206108af9082610cfb565b610f818282611219565b60008281526001602052604090206108af90826112d0565b600061088383836112f2565b60006104bb825490565b6000818152600183016020526040812054610ff6575081546001818101845560008481526020808220909301849055845484825282860190935260409020919091556104bb565b5060006104bb565b60008281526020818152604080832073ffffffffffffffffffffffffffffffffffffffff8516845290915290205460ff166109635761103c8161131c565b61104783602061133b565b604051602001611058929190611aad565b604080517fffffffffffffffffffffffffffffffffffffffffffffffffffffffffffffffe0818403018152908290527f08c379a000000000000000000000000000000000000000000000000000000000825261059791600401611b2e565b6000611118826040518060400160405280602081526020017f5361666545524332303a206c6f772d6c6576656c2063616c6c206661696c65648152508573ffffffffffffffffffffffffffffffffffffffff1661157e9092919063ffffffff16565b90508051600014806111395750808060200190518101906111399190611b7f565b6108af576040517f08c379a000000000000000000000000000000000000000000000000000000000815260206004820152602a60248201527f5361666545524332303a204552433230206f7065726174696f6e20646964206e60448201527f6f742073756363656564000000000000000000000000000000000000000000006064820152608401610597565b600060646111d4600a84611ba1565b6104bb9190611bde565b600063019f48806003546111f29190611a76565b42106111fc575090565b63019f48806003544261120f9190611a63565b6111d49084611ba1565b60008281526020818152604080832073ffffffffffffffffffffffffffffffffffffffff8516845290915290205460ff16156109635760008281526020818152604080832073ffffffffffffffffffffffffffffffffffffffff8516808552925280832080547fffffffffffffffffffffffffffffffffffffffffffffffffffffffffffffff0016905551339285917ff6391f5c32d9c69d2a47ea670b442974b53935d1edc7fd64eb21e047a839171b9190a45050565b60006108838373ffffffffffffffffffffffffffffffffffffffff841661158d565b600082600001828154811061130957611309611c19565b9060005260206000200154905092915050565b60606104bb73ffffffffffffffffffffffffffffffffffffffff831660145b6060600061134a836002611ba1565b611355906002611a76565b67ffffffffffffffff81111561136d5761136d611c48565b6040519080825280601f01601f191660200182016040528015611397576020820181803683370190505b5090507f3000000000000000000000000000000000000000000000000000000000000000816000815181106113ce576113ce611c19565b60200101907effffffffffffffffffffffffffffffffffffffffffffffffffffffffffffff1916908160001a9053507f78000000000000000000000000000000000000000000000000000000000000008160018151811061143157611431611c19565b60200101907effffffffffffffffffffffffffffffffffffffffffffffffffffffffffffff1916908160001a905350600061146d846002611ba1565b611478906001611a76565b90505b6001811115611515577f303132333435363738396162636465660000000000000000000000000000000085600f16601081106114b9576114b9611c19565b1a60f81b8282815181106114cf576114cf611c19565b60200101907effffffffffffffffffffffffffffffffffffffffffffffffffffffffffffff1916908160001a90535060049490941c9361150e81611c77565b905061147b565b508315610883576040517f08c379a000000000000000000000000000000000000000000000000000000000815260206004820181905260248201527f537472696e67733a20686578206c656e67746820696e73756666696369656e746044820152606401610597565b6060610f4d8484600085611687565b600081815260018301602052604081205480156116765760006115b1600183611a63565b85549091506000906115c590600190611a63565b905081811461162a5760008660000182815481106115e5576115e5611c19565b906000526020600020015490508087600001848154811061160857611608611c19565b6000918252602080832090910192909255918252600188019052604090208390555b855486908061163b5761163b611cac565b6001900381819060005260206000200160009055905585600101600086815260200190815260200160002060009055600193505050506104bb565b60009150506104bb565b5092915050565b606082471015611719576040517f08c379a000000000000000000000000000000000000000000000000000000000815260206004820152602660248201527f416464726573733a20696e73756666696369656e742062616c616e636520666f60448201527f722063616c6c00000000000000000000000000000000000000000000000000006064820152608401610597565b6000808673ffffffffffffffffffffffffffffffffffffffff1685876040516117429190611cdb565b60006040518083038185875af1925050503d806000811461177f576040519150601f19603f3d011682016040523d82523d6000602084013e611784565b606091505b5091509150611795878383876117a0565b979650505050505050565b6060831561183657825160000361182f5773ffffffffffffffffffffffffffffffffffffffff85163b61182f576040517f08c379a000000000000000000000000000000000000000000000000000000000815260206004820152601d60248201527f416464726573733a2063616c6c20746f206e6f6e2d636f6e74726163740000006044820152606401610597565b5081610f4d565b610f4d838381511561184b5781518083602001fd5b806040517f08c379a00000000000000000000000000000000000000000000000000000000081526004016105979190611b2e565b60006020828403121561189157600080fd5b81357fffffffff000000000000000000000000000000000000000000000000000000008116811461088357600080fd5b6000602082840312156118d357600080fd5b5035919050565b803573ffffffffffffffffffffffffffffffffffffffff811681146118fe57600080fd5b919050565b60006020828403121561191557600080fd5b610883826118da565b6000806040838503121561193157600080fd5b61193a836118da565b946020939093013593505050565b6000806040838503121561195b57600080fd5b8235915061196b602084016118da565b90509250929050565b6000806040838503121561198757600080fd5b50508035926020909101359150565b600080604083850312156119a957600080fd5b6119b2836118da565b915060208301356fffffffffffffffffffffffffffffffff811681146119d757600080fd5b809150509250929050565b7f4e487b7100000000000000000000000000000000000000000000000000000000600052601160045260246000fd5b6fffffffffffffffffffffffffffffffff818116838216019080821115611680576116806119e2565b6fffffffffffffffffffffffffffffffff828116828216039080821115611680576116806119e2565b818103818111156104bb576104bb6119e2565b808201808211156104bb576104bb6119e2565b60005b83811015611aa4578181015183820152602001611a8c565b50506000910152565b7f416363657373436f6e74726f6c3a206163636f756e7420000000000000000000815260008351611ae5816017850160208801611a89565b7f206973206d697373696e6720726f6c65200000000000000000000000000000006017918401918201528351611b22816028840160208801611a89565b01602801949350505050565b6020815260008251806020840152611b4d816040850160208701611a89565b601f017fffffffffffffffffffffffffffffffffffffffffffffffffffffffffffffffe0169190910160400192915050565b600060208284031215611b9157600080fd5b8151801515811461088357600080fd5b6000817fffffffffffffffffffffffffffffffffffffffffffffffffffffffffffffffff0483118215151615611bd957611bd96119e2565b500290565b600082611c14577f4e487b7100000000000000000000000000000000000000000000000000000000600052601260045260246000fd5b500490565b7f4e487b7100000000000000000000000000000000000000000000000000000000600052603260045260246000fd5b7f4e487b7100000000000000000000000000000000000000000000000000000000600052604160045260246000fd5b600081611c8657611c866119e2565b507fffffffffffffffffffffffffffffffffffffffffffffffffffffffffffffffff0190565b7f4e487b7100000000000000000000000000000000000000000000000000000000600052603160045260246000fd5b60008251611ced818460208701611a89565b919091019291505056fea164736f6c6343000810000a",
  "devdoc": {
    "events": {
      "TokenReleased(address,uint256)": {
        "params": {
          "amount": "amount of tokens received",
          "beneficiary": "who receive the token"
        }
      }
    },
    "kind": "dev",
    "methods": {
      "decreaseAmount(address,uint128)": {
        "params": {
          "_amountToDecrease": "- amount set manually (downgrade by the exceeding amount)",
          "_beneficiary": "- address to refund"
        }
      },
      "getRoleAdmin(bytes32)": {
        "details": "Returns the admin role that controls `role`. See {grantRole} and {revokeRole}. To change a role's admin, use {_setRoleAdmin}."
      },
      "getRoleMember(bytes32,uint256)": {
        "details": "Returns one of the accounts that have `role`. `index` must be a value between 0 and {getRoleMemberCount}, non-inclusive. Role bearers are not sorted in any particular way, and their ordering may change at any point. WARNING: When using {getRoleMember} and {getRoleMemberCount}, make sure you perform all queries on the same block. See the following https://forum.openzeppelin.com/t/iterating-over-elements-on-enumerableset-in-openzeppelin-contracts/2296[forum post] for more information."
      },
      "getRoleMemberCount(bytes32)": {
        "details": "Returns the number of accounts that have `role`. Can be used together with {getRoleMember} to enumerate all bearers of a role."
      },
      "grantRole(bytes32,address)": {
        "details": "Grants `role` to `account`. If `account` had not been already granted `role`, emits a {RoleGranted} event. Requirements: - the caller must have ``role``'s admin role. May emit a {RoleGranted} event."
      },
      "hasRole(bytes32,address)": {
        "details": "Returns `true` if `account` has been granted `role`."
      },
      "renounceRole(bytes32,address)": {
        "details": "Revokes `role` from the calling account. Roles are often managed via {grantRole} and {revokeRole}: this function's purpose is to provide a mechanism for accounts to lose their privileges if they are compromised (such as when a trusted device is misplaced). If the calling account had been revoked `role`, emits a {RoleRevoked} event. Requirements: - the caller must be `account`. May emit a {RoleRevoked} event."
      },
      "revokeRole(bytes32,address)": {
        "details": "Revokes `role` from `account`. If `account` had been granted `role`, emits a {RoleRevoked} event. Requirements: - the caller must have ``role``'s admin role. May emit a {RoleRevoked} event."
      },
      "supportsInterface(bytes4)": {
        "details": "See {IERC165-supportsInterface}."
      }
    },
    "title": "Orivium vesting contract for crowdsale",
    "version": 1
  },
  "userdoc": {
    "events": {
      "TokenReleased(address,uint256)": {
        "notice": "Event for token released logging"
      }
    },
    "kind": "user",
    "methods": {
      "CLIFFING_PERCENT()": {
        "notice": "percentil of token releasable at vesting start timestamp"
      },
      "VESTING_ADMIN_ROLE()": {
        "notice": "Role VESTING_ADMIN_ROLE allows to set ori token address and vesting start timestamp"
      },
      "VESTING_DURATION()": {
        "notice": "Vesting duration in seconds"
      },
      "VESTING_ROLE()": {
        "notice": "Role VESTING_ROLE allows to vest token for a beneficiary"
      },
      "decreaseAmount(address,uint128)": {
        "notice": "Used to cancel tx in case of exceeding total amount of token during crowdsale, the fund used to purchase ori will be refund manually"
      },
      "getAccount(address)": {
        "notice": "get vesting account from beneficiary addres"
      },
      "getReleasableAmount(address)": {
        "notice": "get releasable amount of token for a beneficiary"
      },
      "oriTokenAddress()": {
        "notice": "orivium token address"
      },
      "release(address)": {
        "notice": "release token to beneficiary"
      },
      "setOriTokenAddress(address)": {
        "notice": "set ori token address"
      },
      "vest(address,uint256)": {
        "notice": "vest amount of token to a beneficiary"
      },
      "vestingStart()": {
        "notice": "vesting start timestamp \t\tdefault to 2024, this will be changed to token release date"
      }
    },
    "notice": "once purchased on crowdsale, this contrat is responsible to deliver token to purchaser \t\ttoken will be available to claim as follow: 10% at vesting start timestamp then 2% each week",
    "version": 1
  },
  "storageLayout": {
    "storage": [
      {
        "astId": 333,
        "contract": "contracts/sales/Vesting.sol:Vesting",
        "label": "_roles",
        "offset": 0,
        "slot": "0",
        "type": "t_mapping(t_bytes32,t_struct(RoleData)328_storage)"
      },
      {
        "astId": 643,
        "contract": "contracts/sales/Vesting.sol:Vesting",
        "label": "_roleMembers",
        "offset": 0,
        "slot": "1",
        "type": "t_mapping(t_bytes32,t_struct(AddressSet)5674_storage)"
      },
      {
        "astId": 966,
        "contract": "contracts/sales/Vesting.sol:Vesting",
        "label": "_status",
        "offset": 0,
        "slot": "2",
        "type": "t_uint256"
      },
      {
        "astId": 7791,
        "contract": "contracts/sales/Vesting.sol:Vesting",
        "label": "vestingStart",
        "offset": 0,
        "slot": "3",
        "type": "t_uint256"
      },
      {
        "astId": 7798,
        "contract": "contracts/sales/Vesting.sol:Vesting",
        "label": "oriTokenAddress",
        "offset": 0,
        "slot": "4",
        "type": "t_address"
      },
      {
        "astId": 7804,
        "contract": "contracts/sales/Vesting.sol:Vesting",
        "label": "accounts",
        "offset": 0,
        "slot": "5",
        "type": "t_mapping(t_address,t_struct(VestingAccount)7811_storage)"
      }
    ],
    "types": {
      "t_address": {
        "encoding": "inplace",
        "label": "address",
        "numberOfBytes": "20"
      },
      "t_array(t_bytes32)dyn_storage": {
        "base": "t_bytes32",
        "encoding": "dynamic_array",
        "label": "bytes32[]",
        "numberOfBytes": "32"
      },
      "t_bool": {
        "encoding": "inplace",
        "label": "bool",
        "numberOfBytes": "1"
      },
      "t_bytes32": {
        "encoding": "inplace",
        "label": "bytes32",
        "numberOfBytes": "32"
      },
      "t_mapping(t_address,t_bool)": {
        "encoding": "mapping",
        "key": "t_address",
        "label": "mapping(address => bool)",
        "numberOfBytes": "32",
        "value": "t_bool"
      },
      "t_mapping(t_address,t_struct(VestingAccount)7811_storage)": {
        "encoding": "mapping",
        "key": "t_address",
        "label": "mapping(address => struct Vesting.VestingAccount)",
        "numberOfBytes": "32",
        "value": "t_struct(VestingAccount)7811_storage"
      },
      "t_mapping(t_bytes32,t_struct(AddressSet)5674_storage)": {
        "encoding": "mapping",
        "key": "t_bytes32",
        "label": "mapping(bytes32 => struct EnumerableSet.AddressSet)",
        "numberOfBytes": "32",
        "value": "t_struct(AddressSet)5674_storage"
      },
      "t_mapping(t_bytes32,t_struct(RoleData)328_storage)": {
        "encoding": "mapping",
        "key": "t_bytes32",
        "label": "mapping(bytes32 => struct AccessControl.RoleData)",
        "numberOfBytes": "32",
        "value": "t_struct(RoleData)328_storage"
      },
      "t_mapping(t_bytes32,t_uint256)": {
        "encoding": "mapping",
        "key": "t_bytes32",
        "label": "mapping(bytes32 => uint256)",
        "numberOfBytes": "32",
        "value": "t_uint256"
      },
      "t_struct(AddressSet)5674_storage": {
        "encoding": "inplace",
        "label": "struct EnumerableSet.AddressSet",
        "members": [
          {
            "astId": 5673,
            "contract": "contracts/sales/Vesting.sol:Vesting",
            "label": "_inner",
            "offset": 0,
            "slot": "0",
            "type": "t_struct(Set)5359_storage"
          }
        ],
        "numberOfBytes": "64"
      },
      "t_struct(RoleData)328_storage": {
        "encoding": "inplace",
        "label": "struct AccessControl.RoleData",
        "members": [
          {
            "astId": 325,
            "contract": "contracts/sales/Vesting.sol:Vesting",
            "label": "members",
            "offset": 0,
            "slot": "0",
            "type": "t_mapping(t_address,t_bool)"
          },
          {
            "astId": 327,
            "contract": "contracts/sales/Vesting.sol:Vesting",
            "label": "adminRole",
            "offset": 0,
            "slot": "1",
            "type": "t_bytes32"
          }
        ],
        "numberOfBytes": "64"
      },
      "t_struct(Set)5359_storage": {
        "encoding": "inplace",
        "label": "struct EnumerableSet.Set",
        "members": [
          {
            "astId": 5354,
            "contract": "contracts/sales/Vesting.sol:Vesting",
            "label": "_values",
            "offset": 0,
            "slot": "0",
            "type": "t_array(t_bytes32)dyn_storage"
          },
          {
            "astId": 5358,
            "contract": "contracts/sales/Vesting.sol:Vesting",
            "label": "_indexes",
            "offset": 0,
            "slot": "1",
            "type": "t_mapping(t_bytes32,t_uint256)"
          }
        ],
        "numberOfBytes": "64"
      },
      "t_struct(VestingAccount)7811_storage": {
        "encoding": "inplace",
        "label": "struct Vesting.VestingAccount",
        "members": [
          {
            "astId": 7807,
            "contract": "contracts/sales/Vesting.sol:Vesting",
            "label": "amount",
            "offset": 0,
            "slot": "0",
            "type": "t_uint128"
          },
          {
            "astId": 7810,
            "contract": "contracts/sales/Vesting.sol:Vesting",
            "label": "released",
            "offset": 16,
            "slot": "0",
            "type": "t_uint128"
          }
        ],
        "numberOfBytes": "32"
      },
      "t_uint128": {
        "encoding": "inplace",
        "label": "uint128",
        "numberOfBytes": "16"
      },
      "t_uint256": {
        "encoding": "inplace",
        "label": "uint256",
        "numberOfBytes": "32"
      }
    }
  }
}